{
  "_format": "hh-sol-artifact-1",
  "contractName": "Curation",
  "sourceName": "contracts/Curation.sol",
  "abi": [
    {
      "anonymous": false,
      "inputs": [
        {
          "indexed": true,
          "internalType": "uint256",
          "name": "id",
          "type": "uint256"
        },
        {
          "indexed": false,
          "internalType": "string",
          "name": "eventType",
          "type": "string"
        },
        {
          "indexed": false,
          "internalType": "uint256",
          "name": "galleryId",
          "type": "uint256"
        },
        {
          "indexed": false,
          "internalType": "address",
          "name": "collection",
          "type": "address"
        },
        {
          "indexed": false,
          "internalType": "uint256",
          "name": "tokenId",
          "type": "uint256"
        },
        {
          "indexed": false,
          "internalType": "address",
          "name": "origin",
          "type": "address"
        },
        {
          "indexed": false,
          "internalType": "uint64",
          "name": "expiration",
          "type": "uint64"
        },
        {
          "indexed": false,
          "internalType": "uint256",
          "name": "price",
          "type": "uint256"
        },
        {
          "indexed": false,
          "internalType": "string",
          "name": "location",
          "type": "string"
        },
        {
          "indexed": false,
          "internalType": "string",
          "name": "url",
          "type": "string"
        },
        {
          "indexed": false,
          "internalType": "string",
          "name": "detail",
          "type": "string"
        },
        {
          "indexed": false,
          "internalType": "uint64",
          "name": "timestamp",
          "type": "uint64"
        }
      ],
      "name": "ExhibitChanged",
      "type": "event"
    },
    {
      "anonymous": false,
      "inputs": [
        {
          "indexed": true,
          "internalType": "uint256",
          "name": "id",
          "type": "uint256"
        },
        {
          "indexed": false,
          "internalType": "string",
          "name": "eventType",
          "type": "string"
        },
        {
          "indexed": false,
          "internalType": "address",
          "name": "collection",
          "type": "address"
        },
        {
          "indexed": false,
          "internalType": "uint256",
          "name": "tokenId",
          "type": "uint256"
        },
        {
          "indexed": false,
          "internalType": "address",
          "name": "owner",
          "type": "address"
        },
        {
          "indexed": false,
          "internalType": "string",
          "name": "spaceType",
          "type": "string"
        },
        {
          "indexed": false,
          "internalType": "string",
          "name": "name",
          "type": "string"
        },
        {
          "indexed": false,
          "internalType": "string",
          "name": "metadataUri",
          "type": "string"
        },
        {
          "indexed": false,
          "internalType": "bool",
          "name": "isToken",
          "type": "bool"
        },
        {
          "indexed": false,
          "internalType": "uint64",
          "name": "timestamp",
          "type": "uint64"
        },
        {
          "indexed": false,
          "internalType": "address[]",
          "name": "payees",
          "type": "address[]"
        },
        {
          "indexed": false,
          "internalType": "uint256[]",
          "name": "commissionRates",
          "type": "uint256[]"
        },
        {
          "indexed": false,
          "internalType": "address",
          "name": "commissionPool",
          "type": "address"
        }
      ],
      "name": "GalleryChanged",
      "type": "event"
    },
    {
      "anonymous": false,
      "inputs": [
        {
          "indexed": false,
          "internalType": "uint8",
          "name": "version",
          "type": "uint8"
        }
      ],
      "name": "Initialized",
      "type": "event"
    },
    {
      "anonymous": false,
      "inputs": [
        {
          "indexed": true,
          "internalType": "uint256",
          "name": "id",
          "type": "uint256"
        },
        {
          "indexed": false,
          "internalType": "string",
          "name": "eventType",
          "type": "string"
        },
        {
          "indexed": false,
          "internalType": "address",
          "name": "collection",
          "type": "address"
        },
        {
          "indexed": false,
          "internalType": "uint256",
          "name": "tokenId",
          "type": "uint256"
        },
        {
          "indexed": false,
          "internalType": "address",
          "name": "from",
          "type": "address"
        },
        {
          "indexed": false,
          "internalType": "address",
          "name": "to",
          "type": "address"
        },
        {
          "indexed": false,
          "internalType": "uint256",
          "name": "price",
          "type": "uint256"
        },
        {
          "indexed": false,
          "internalType": "uint256",
          "name": "galleryId",
          "type": "uint256"
        },
        {
          "indexed": false,
          "internalType": "uint64",
          "name": "offerStartAt",
          "type": "uint64"
        },
        {
          "indexed": false,
          "internalType": "uint64",
          "name": "offerExpiredAt",
          "type": "uint64"
        },
        {
          "indexed": false,
          "internalType": "uint64",
          "name": "exhibitExpiredAt",
          "type": "uint64"
        },
        {
          "indexed": false,
          "internalType": "string",
          "name": "url",
          "type": "string"
        },
        {
          "indexed": false,
          "internalType": "string",
          "name": "detail",
          "type": "string"
        },
        {
          "indexed": false,
          "internalType": "uint64",
          "name": "timestamp",
          "type": "uint64"
        }
      ],
      "name": "OfferChanged",
      "type": "event"
    },
    {
      "anonymous": false,
      "inputs": [
        {
          "indexed": true,
          "internalType": "address",
          "name": "previousOwner",
          "type": "address"
        },
        {
          "indexed": true,
          "internalType": "address",
          "name": "newOwner",
          "type": "address"
        }
      ],
      "name": "OwnershipTransferStarted",
      "type": "event"
    },
    {
      "anonymous": false,
      "inputs": [
        {
          "indexed": true,
          "internalType": "address",
          "name": "previousOwner",
          "type": "address"
        },
        {
          "indexed": true,
          "internalType": "address",
          "name": "newOwner",
          "type": "address"
        }
      ],
      "name": "OwnershipTransferred",
      "type": "event"
    },
    {
      "inputs": [],
      "name": "acceptOwnership",
      "outputs": [],
      "stateMutability": "nonpayable",
      "type": "function"
    },
    {
      "inputs": [
        {
          "internalType": "uint256[]",
          "name": "galleryIds",
          "type": "uint256[]"
        },
        {
          "internalType": "uint256[]",
          "name": "exhibitIds",
          "type": "uint256[]"
        }
      ],
      "name": "batchList",
      "outputs": [],
      "stateMutability": "nonpayable",
      "type": "function"
    },
    {
      "inputs": [
        {
          "internalType": "uint256[]",
          "name": "galleryIds",
          "type": "uint256[]"
        },
        {
          "internalType": "address[]",
          "name": "collections",
          "type": "address[]"
        },
        {
          "internalType": "uint256[]",
          "name": "tokenIds",
          "type": "uint256[]"
        },
        {
          "internalType": "uint256[]",
          "name": "prices",
          "type": "uint256[]"
        }
      ],
      "name": "batchListOwned",
      "outputs": [],
      "stateMutability": "nonpayable",
      "type": "function"
    },
    {
      "inputs": [
        {
          "internalType": "uint256",
          "name": "galleryId",
          "type": "uint256"
        },
        {
          "internalType": "uint256",
          "name": "exhibitId",
          "type": "uint256"
        }
      ],
      "name": "buy",
      "outputs": [],
      "stateMutability": "payable",
      "type": "function"
    },
    {
      "inputs": [
        {
          "internalType": "uint256",
          "name": "galleryId",
          "type": "uint256"
        },
        {
          "internalType": "uint256",
          "name": "exhibitId",
          "type": "uint256"
        }
      ],
      "name": "cancel",
      "outputs": [],
      "stateMutability": "nonpayable",
      "type": "function"
    },
    {
      "inputs": [
        {
          "internalType": "uint256",
          "name": "offerId",
          "type": "uint256"
        }
      ],
      "name": "cancelOffer",
      "outputs": [],
      "stateMutability": "nonpayable",
      "type": "function"
    },
    {
      "inputs": [
        {
          "internalType": "address",
          "name": "collection",
          "type": "address"
        },
        {
          "internalType": "uint256",
          "name": "tokenId",
          "type": "uint256"
        },
        {
          "internalType": "string",
          "name": "spaceType",
          "type": "string"
        },
        {
          "internalType": "string",
          "name": "name",
          "type": "string"
        },
        {
          "internalType": "string",
          "name": "metadataUri",
          "type": "string"
        },
        {
          "internalType": "bool",
          "name": "isToken",
          "type": "bool"
        },
        {
          "internalType": "address[]",
          "name": "payees",
          "type": "address[]"
        },
        {
          "internalType": "uint256[]",
          "name": "commissionRates",
          "type": "uint256[]"
        }
      ],
      "name": "createGallery",
      "outputs": [],
      "stateMutability": "nonpayable",
      "type": "function"
    },
    {
      "inputs": [
        {
          "internalType": "uint256",
          "name": "galleryId",
          "type": "uint256"
        },
        {
          "internalType": "uint256",
          "name": "exhibitId",
          "type": "uint256"
        }
      ],
      "name": "freeze",
      "outputs": [],
      "stateMutability": "nonpayable",
      "type": "function"
    },
    {
      "inputs": [],
      "name": "initialize",
      "outputs": [],
      "stateMutability": "nonpayable",
      "type": "function"
    },
    {
      "inputs": [
        {
          "internalType": "uint256",
          "name": "galleryId",
          "type": "uint256"
        },
        {
          "internalType": "uint256",
          "name": "exhibitId",
          "type": "uint256"
        },
        {
          "internalType": "string",
          "name": "location",
          "type": "string"
        }
      ],
      "name": "list",
      "outputs": [],
      "stateMutability": "nonpayable",
      "type": "function"
    },
    {
      "inputs": [
        {
          "internalType": "uint256",
          "name": "galleryId",
          "type": "uint256"
        },
        {
          "internalType": "address",
          "name": "collection",
          "type": "address"
        },
        {
          "internalType": "uint256",
          "name": "tokenId",
          "type": "uint256"
        },
        {
          "internalType": "uint256",
          "name": "price",
          "type": "uint256"
        },
        {
          "internalType": "string",
          "name": "location",
          "type": "string"
        }
      ],
      "name": "listOwned",
      "outputs": [],
      "stateMutability": "nonpayable",
      "type": "function"
    },
    {
      "inputs": [],
      "name": "owner",
      "outputs": [
        {
          "internalType": "address",
          "name": "",
          "type": "address"
        }
      ],
      "stateMutability": "view",
      "type": "function"
    },
    {
      "inputs": [],
      "name": "pendingOwner",
      "outputs": [
        {
          "internalType": "address",
          "name": "",
          "type": "address"
        }
      ],
      "stateMutability": "view",
      "type": "function"
    },
    {
      "inputs": [
        {
          "internalType": "uint256",
          "name": "galleryId",
          "type": "uint256"
        },
        {
          "internalType": "uint256",
          "name": "exhibitId",
          "type": "uint256"
        }
      ],
      "name": "redeemForce",
      "outputs": [],
      "stateMutability": "nonpayable",
      "type": "function"
    },
    {
      "inputs": [
        {
          "internalType": "uint256",
          "name": "galleryId",
          "type": "uint256"
        },
        {
          "internalType": "uint256",
          "name": "exhibitId",
          "type": "uint256"
        }
      ],
      "name": "redeemWithFreeze",
      "outputs": [],
      "stateMutability": "nonpayable",
      "type": "function"
    },
    {
      "inputs": [],
      "name": "renounceOwnership",
      "outputs": [],
      "stateMutability": "nonpayable",
      "type": "function"
    },
    {
      "inputs": [
        {
          "internalType": "uint256",
          "name": "offerId",
          "type": "uint256"
        },
        {
          "internalType": "bool",
          "name": "accept",
          "type": "bool"
        }
      ],
      "name": "replyOffer",
      "outputs": [],
      "stateMutability": "nonpayable",
      "type": "function"
    },
    {
      "inputs": [
        {
          "internalType": "address",
          "name": "collection",
          "type": "address"
        },
        {
          "internalType": "uint256",
          "name": "tokenId",
          "type": "uint256"
        },
        {
          "internalType": "uint256",
          "name": "galleryId",
          "type": "uint256"
        },
        {
          "internalType": "uint256",
          "name": "price",
          "type": "uint256"
        },
        {
          "internalType": "uint64",
          "name": "offerDuration",
          "type": "uint64"
        },
        {
          "internalType": "uint64",
          "name": "exhibitExpiredAt",
          "type": "uint64"
        },
        {
          "internalType": "string",
          "name": "url",
          "type": "string"
        },
        {
          "internalType": "string",
          "name": "detail",
          "type": "string"
        }
      ],
      "name": "sendOffer",
      "outputs": [],
      "stateMutability": "nonpayable",
      "type": "function"
    },
    {
      "inputs": [
        {
          "internalType": "address",
          "name": "curator",
          "type": "address"
        },
        {
          "internalType": "bool",
          "name": "enable",
          "type": "bool"
        }
      ],
      "name": "setWhitelist",
      "outputs": [],
      "stateMutability": "nonpayable",
      "type": "function"
    },
    {
      "inputs": [
        {
          "internalType": "bool",
          "name": "enable",
          "type": "bool"
        }
      ],
      "name": "toggleWhitelist",
      "outputs": [],
      "stateMutability": "nonpayable",
      "type": "function"
    },
    {
      "inputs": [
        {
          "internalType": "address",
          "name": "newOwner",
          "type": "address"
        }
      ],
      "name": "transferOwnership",
      "outputs": [],
      "stateMutability": "nonpayable",
      "type": "function"
    },
    {
      "inputs": [
        {
          "internalType": "uint256",
          "name": "newFeeRate",
          "type": "uint256"
        }
      ],
      "name": "updateBaseFeeRate",
      "outputs": [],
      "stateMutability": "nonpayable",
      "type": "function"
    }
  ],
  "bytecode": "0x6080806040523461001657615b4b908161001c8239f35b600080fdfe6080604052600436101561001257600080fd5b6000803560e01c8062efa89514612dc457806317a59f9d14612da15780631ca177ed146126f1578063274a192b146126545780632f8e456d1461263457806333b80a96146125ed57806335d7a052146125d55780635242458c14611e3b57806353d6fd5914611deb578063715018a614611d9557806379ba509714611d0d57806380e3f1ad14611cd55780638129fc1c14611aa45780638da5cb5b14611a7b578063a815b68914611a4e578063abd46f6e146112be578063ae9fc9e714610b83578063d4b0cc6714610b54578063d6febde81461053d578063e30c397814610514578063ef706adf1461017e5763f2fde38b1461010e57600080fd5b3461017b57602036600319011261017b57610127612f46565b61012f61316f565b60a680546001600160a01b0319166001600160a01b039283169081179091556074549091167f38d16b8cac22d99fc7c124b9cd0de2d3fa1faef420bfe791d8c362d765e227008380a380f35b80fd5b503461017b57602036600319011261017b5760043561019b61339d565b6101ac6101a782614f37565b613227565b808252603c602052604082206040516101c481612f8b565b8154815260018201546001600160a01b039081166020830152600283015460408084019190915260038401548216606084019081526004850154909216608080850191909152600585015460a0850152600685015460c085015260078501546001600160401b0380821660e08701529281901c8316610100860152901c1661012083015291610287906101809060ff90600a90610263600882016133f3565b610140870152610275600982016133f3565b6101608701520154169201918261327b565b5160048110156105005761029b9015613497565b516001600160a01b031633036104af57808252603c602052600a6040832001600360ff19825416179055808252603c602052600080516020615ab6833981519152604083206103a760ff600a604051936102f485612f8b565b8054855260018101546001600160a01b03908116602087015260028201546040808801919091526003830154821660608801526004830154909116608080880191909152600583015460a0880152600683015460c088015260078301546001600160401b0380821660e08a01529281901c8316610100890152901c16610120860152610382600882016133f3565b610140860152610394600982016133f3565b610160860152015416610180830161327b565b602061049560018060a01b0382840151169261048660408201519160018060a01b0360608201511660018060a01b0360808301511660a083015160c084015160018060401b0360e0860151169160018060401b03610100870151169360018060401b036101208801511695610160610140890151980151996040519d8e9d8e600d6101a08083528201526c13d999995c90d85b98d95b1959609a1b6101c0820152015260408d015260608c015260808b015260a08a015260c089015260e08801526101008701526101208601526101e08061014087015285019061335d565b9083820361016085015261335d565b426001600160401b03166101808301520390a26001805580f35b60405162461bcd60e51b815260206004820152602360248201527f4f6e6c792067616c6c657279206f776e65722063616e2063616e63656c206f666044820152623332b960e91b6064820152608490fd5b634e487b7160e01b84526021600452602484fd5b503461017b578060031936011261017b5760a6546040516001600160a01b039091168152602090f35b5061054736612f30565b909161055161339d565b61055d6101a784614f4a565b61056e61056983614f24565b61426c565b61058061057b8385614ed3565b614706565b818152603d6020526040812061063860ff6009604051936105a085612f5c565b805485526001810154602086015260028101546001600160a01b039081166040870152600382015460608701526004820154908116608087015260a090811c6001600160401b031690860152600581015460c0860152610602600682016133f3565b60e0860152610613600782016133f3565b610100860152610625600882016133f3565b6101208601520154166101408301614139565b60c08101513403610b18576036546040516337bcb2eb60e01b815260048101869052929485918290859060249082906001600160a01b03165afa93841561099a57829083956109cb575b5082965b8151881015610773576001600160a01b036106a189846134df565b51166106ad89886134df565b5160c087015191818381020483148215171561075f576036546001600160a01b031690813b1561075b578790604460405180948193636e553f6560e01b83528b60048401526024830152670de0b6b3a764000088880204905af1801561075057908791610738575b505091670de0b6b3a76400006107309260019402049061475e565b970196610686565b61074190612f78565b61074c578538610715565b8580fd5b6040513d89823e3d90fd5b8780fd5b634e487b7160e01b87526011600452602487fd5b848785926039549060c08401519180838102048314811517156109b7579085808080809695670de0b6b3a764000060018060a01b0360745416978392020496879182156109ae575bf11561099a57608085015160c08601518493849384936001600160a01b0316926107ee92916107e99161476b565b61476b565b908282156109a5575bf11561099a576040820151606083015184916001600160a01b0316803b15610996576040516323b872dd60e01b8152918391839182908490829061084090333060048501614117565b03925af1801561099a57610982575b50819052603d60205260096040842001600360ff198254161790558252603d60205260006006604084200161088d610887825461329d565b826132ee565b55600080516020615af68339815191526a115e1a1a589a5d14dbdb1960aa1b61018061096884519461095960208201519161094a60018060a01b03604083015116606083015160018060a01b0360808501511660018060401b0360a0860151169060c08601519260e087015194610120610100890151980151996040519d8e9d8e600b610160808352820152015260208d015260408c015260608b015260808a015260a089015260c08801526101a08060e089015287019061335d565b9085820361010087015261335d565b9083820361012085015261335d565b426001600160401b03166101408301520390a26001805580f35b61098b90612f78565b61099657828461084f565b8280fd5b6040513d84823e3d90fd5b506108fc6107f7565b506108fc6107bb565b634e487b7160e01b86526011600452602486fd5b9450503d938483823e6109de8582612fc2565b6040818681010312610996578051906001600160401b038211610b1457858101601f838301011215610b145781810151610a178161303b565b92610a256040519485612fc2565b818452602084019088840160208460051b838701010111610af15790602082850101915b60208460051b82870101018310610af957505050506020810151956001600160401b038711610af557808201601f888401011215610af5578682015191610a8f8361303b565b97610a9d604051998a612fc2565b8389526020890192820160208560051b838501010111610af1579190602083820101925b60208560051b82840101018410610add57505050505038610682565b602080809486518152019401939250610ac1565b8680fd5b8480fd5b6020808093610b0786613267565b8152019301929150610a49565b8380fd5b60405162461bcd60e51b8152602060048201526014602482015273496e73756666696369656e742062616c616e636560601b6044820152606490fd5b503461017b57610b7c610b6636612f30565b90610b6f61316f565b610b7761339d565b614b6e565b6001805580f35b503461017b57608036600319011261017b576004356001600160401b0381116112ba57610bb4903690600401613052565b602480356001600160401b038111610b1457610bd49036906004016130bf565b60449182356001600160401b03811161074c57610bf5903690600401613052565b916064356001600160401b038111610af157610c15903690600401613052565b865b82518110156112b657610c2a81886134df565b516001600160a01b03610c3d83866134df565b5116610c4983886134df565b5191610c5584866134df565b5160405193610c6385612fa7565b8c8552610c6e61339d565b610c7a6101a784614f4a565b828d52603e60205260408d2060030154610c9e906001600160a01b0316331461417d565b8c6040516331a9108f60e11b81528260048201526020818c81895afa9182156112aa579161126c575b506001600160a01b0316330361123357833b1561122f576040516323b872dd60e01b81528d90818180610cff86303360048501614117565b0381838a5af1801561099a5761121b575b5050603593600185540180955560405193610d2a85612f5c565b8585526020850152604084015260608301523360808301528b60a083015260c08201528260e0820152604051610d5f81612fa7565b8b8152610100820152604051610d7481612fa7565b8b815261012082015260016101408201819052828c52603d60209081526040808e20845181559184015192820192909255908201516002820180546001600160a01b0319166001600160a01b0392831617905560608301516003830155608083015160048301805460a0808701516001600160e01b031990921693909416929092179190921b600160a01b600160e01b031617905560c0820151600582015560e08201518051919291906001600160401b038211611114578d8291610e4983610e40600689015461329d565b60068901613318565b602091601f84116001146111ac57926111a1575b50508160011b916000199060031b1c19161760068301555b6101008101518051906001600160401b038211611114578d8291610ea983610ea0600789015461329d565b60078901613318565b602091601f84116001146111325792611127575b50508160011b916000199060031b1c19161760078301555b61012081015180519091906001600160401b03811161111457610f0881610eff600887015461329d565b60088701613318565b60208e6001601f8411146110a257906101409483611097575b50508160011b916000199060031b1c19161760088401555b0151906006821015611084576001949392916009610f579201614145565b8a52603d602052600080516020615af683398151915260408b2060405190610f7e82612f5c565b80548252858101546020830152858060a01b03600282015416604083015260038101546060830152611078600482015491878060a01b038316608085015260a0840192888060401b039060a01c16835260058101549260c08501938452610fe7600683016133f3565b60e0860152610ff8600783016133f3565b91610100860192835261102a60ff6009611014600885016133f3565b936101208a019485520154166101408801614139565b8551976020870151938b8060a01b036040890151169660608901519860808e8060a01b0391015116948d8060401b0390511690519151935194604051998a998f8060401b034216988b6141db565b0390a281805501610c17565b634e487b7160e01b8c526021600452878cfd5b015190503880610f21565b91929360088601835260208320925b601f19851681106110fc57509183916001936101409695601f198116106110e3575b505050811b016008840155610f39565b015160001960f88460031b161c191690553880806110d3565b919260206001819286850151815501940192016110b1565b634e487b7160e01b8e526041600452898efd5b015190503880610ebd565b6007870181526020812090945091905b601f1984168510611186576001945083601f1981161061116d575b505050811b016007830155610ed5565b015160001960f88460031b161c1916905538808061115d565b81810151835560209485019460019093019290910190611142565b015190503880610e5d565b6006870181526020812090945091905b601f1984168510611200576001945083601f198116106111e7575b505050811b016006830155610e75565b015160001960f88460031b161c191690553880806111d7565b818101518355602094850194600190930192909101906111bc565b61122490612f78565b61122f578c38610d10565b8c80fd5b60405162461bcd60e51b8152602060048201526013818b0152721bdb9b1e481bdddb995c8818d85b881b1a5cdd606a1b818d0152606490fd5b90506020813d6020116112a2575b8161128760209383612fc2565b8101031261129e5761129890613267565b38610cc7565b8d80fd5b3d915061127a565b604051903d90823e3d90fd5b8780f35b5080fd5b503461017b5761010036600319011261017b576112d9612f46565b60843591906001600160401b0383168303611a495760a435906001600160401b0382168203611a495760c4356001600160401b038111610b1457611321903690600401612fe5565b9060e4356001600160401b038111610af557611341903690600401612fe5565b61134961339d565b603a546001600160401b03600882901c81169088161161074c576001600160401b03428116868216039190821161075f5760481c6001600160401b03908116911611610af55761139d6101a7604435614f4a565b6044358552603e60205260408520600301546001600160a01b031692338490036119fa576001603454019485603455604051976331a9108f60e11b895260243560048a015260208960248160018060a01b0389165afa9889156119ef5788996119b3575b506001600160401b03428116828216011161199d576044358852603e6020526040808920600301549051906001600160a01b031661143e82612f8b565b88825260018060a01b03871660208301526024356040830152606082015260018060a01b038a16608082015260643560a082015260443560c082015260018060401b03421660e082015260018060401b0360018060401b03831660018060401b034216011661010082015260018060401b038316610120820152836101408201528461016082015288610180820152878952603c6020526040892090805182556001820160018060a01b036020830151169060018060a01b03199182825416179055604082015160028401556003830160018060a01b0360608401511682825416179055600483019060018060a01b036080840151169082541617905560a0810151600583015560c081015160068301556007820160018060401b0360e083015116815490600160401b600160801b0361010085015160401b1690600160801b600160c01b0361012086015160801b169260018060c01b031916171717905561014081015180519060018060401b03821161190f5781906115cf826115c6600888015461329d565b60088801613318565b602090601f831160011461192e578d92611923575b50508160011b916000199060031b1c19161760088301555b61016081015180519091906001600160401b03811161190f5761162f81611626600987015461329d565b60098701613318565b6020928c601f831160011461189b5761018094909183611890575b50508160011b916000199060031b1c19161760098401555b015190600482101561187c57600a019060ff8019835416911617905561168a60243586614dbd565b98898952603b6020526040892054156000146117fd57604051996001600160401b0360208c01908111908c11176117e75760208b01604052888b528952603b60205260408920998a5460018c55806001106117c8575b50998952602089209989905b600182106117b4575050600080516020615ab68339815191529798995091610495949391610486935b604080516101a0808252600c908201526b13d999995c90dc99585d195960a21b6101c08201526001600160a01b03998a166020820152602435918101919091526060810199909952909616608088015260643560a088015260443560c08801526001600160401b0342811660e0890181905296811690960186166101008801529094166101208601526101e0610140860181905285949085019061335d565b80518c8301556001909101906020016116ec565b6117e1908c6000526001602060002091820191016132d7565b386116e0565b634e487b7160e01b600052604160045260246000fd5b9091929394959697985060408920805490600160401b8210156118685760018201808255821015611854579261049595928a600080516020615ab68339815191529a9998969360208e610486988152200155611715565b634e487b7160e01b8b52603260045260248bfd5b634e487b7160e01b8b52604160045260248bfd5b634e487b7160e01b8a52602160045260248afd5b01519050388061164a565b50909192600985018d5260208d20918d5b601f19851681106118f757509183916001936101809695601f198116106118de575b505050811b016009840155611662565b015160001960f88460031b161c191690553880806118ce565b919260206001819286850151815501940192016118ac565b634e487b7160e01b8c52604160045260248cfd5b0151905038806115e4565b9250600885018d5260208d20908d935b601f1984168510611982576001945083601f19811610611969575b505050811b0160088301556115fc565b015160001960f88460031b161c19169055388080611959565b8181015183556020948501946001909301929091019061193e565b634e487b7160e01b600052601160045260246000fd5b9098506020813d6020116119e7575b816119cf60209383612fc2565b8101031261075b576119e090613267565b9738611401565b3d91506119c2565b6040513d8a823e3d90fd5b60405162461bcd60e51b815260206004820152602160248201527f4f6e6c792067616c6c657279206f776e65722063616e206d616b65206f6666656044820152603960f91b6064820152608490fd5b600080fd5b503461017b57604036600319011261017b57610b7c611a6b6130b0565b611a7361339d565b600435613509565b503461017b578060031936011261017b576074546040516001600160a01b039091168152602090f35b503461017b578060031936011261017b57805460ff8160081c161590818092611cc8575b8015611cb1575b15611c555760ff198116600117835581611c44575b50604180546001600160a01b031990811630179091558254611b2a9060081c60ff16611b0f816131c7565b611b18816131c7565b60018055611b25816131c7565b6131c7565b611b333361312d565b604051610b58808201906001600160401b03821183831017611c3057918091869493614f5e8339039083f0801561099a57603680546001600160a01b039290921692821683179055821617803b156112ba5781809160046040518094819363204a7f0760e21b83525af1801561099a57611c1c575b50506005603755670de0b6b3a76400006038556039829055603a80546001600160881b03191663278d00006203c267604f1b01179055611be55780f35b61ff001981541681557f7f26b83ff96e1f2b6a682f133852f6798a09c465da95921460cefb3847402498602060405160018152a180f35b611c2590612f78565b6112ba578138611ba8565b634e487b7160e01b86526041600452602486fd5b61ffff191661010117825538611ae4565b60405162461bcd60e51b815260206004820152602e60248201527f496e697469616c697a61626c653a20636f6e747261637420697320616c72656160448201526d191e481a5b9a5d1a585b1a5e995960921b6064820152608490fd5b50303b158015611acf5750600160ff821614611acf565b50600160ff821610611ac8565b503461017b57602036600319011261017b57600435801515809103611a4957611cfc61316f565b60ff8019603a5416911617603a5580f35b503461017b578060031936011261017b5760a654336001600160a01b0390911603611d3e57611d3b3361312d565b80f35b60405162461bcd60e51b815260206004820152602960248201527f4f776e61626c6532537465703a2063616c6c6572206973206e6f7420746865206044820152683732bb9037bbb732b960b91b6064820152608490fd5b503461017b578060031936011261017b57611dae61316f565b60a680546001600160a01b03199081169091556074805491821690556000906001600160a01b0316600080516020615ad68339815191528280a380f35b503461017b57604036600319011261017b57611e05612f46565b611e0d6130b0565b90611e1661316f565b60018060a01b031682526040602052604082209060ff80198354169115151617905580f35b503461017b5761010036600319011261017b57611e56612f46565b6044356001600160401b03811161099657611e75903690600401612fe5565b906064356001600160401b038111610b1457611e95903690600401612fe5565b926084356001600160401b0381116112ba57611eb5903690600401612fe5565b9360a435151560a43503611a495760c4356001600160401b03811161099657611ee29036906004016130bf565b936001600160401b0360e4351161099657611f023660e435600401613052565b93611f0b61339d565b60a4351560a43561254c575b156125135760ff603a54161580156124fd575b156124ba57855185511061247b5785516037541061243a57839584965b815160ff89161015611f77576001611f6e60ff92611f67848c168b6134df565b519061475e565b98011696611f47565b90888792603854106123e9576001603354019586603355868852603e60205260408820878155865160018060401b0381116122ea57611fc681611fbd600485015461329d565b60048501613318565b806020601f821160011461237e578b91612373575b508160011b916000199060031b1c19161760048201555b6001810180546001600160a01b0319166001600160a01b038816179055602435600282015581516001600160401b0381116122ea5761204181612038600585015461329d565b60058501613318565b806020601f8211600114612309578b916122fe575b508160011b916000199060031b1c19161760058201555b6003810180546001600160a01b0319163317905582516001600160401b0381116122ea576120ab816120a2600685015461329d565b60068501613318565b806020601f8211600114612280578b91612275575b508160011b916000199060031b1c19161760068201555b6036805460079290920180546001600160a01b0319166001600160a01b0393841617905554899116803b156112ba57816040518092630fb1a81d60e11b82528b600483015260606024830152818381612148612136606483018d614d4c565b8281036003190160448401528d614d89565b03925af1801561099a57612257575b5050926122376d11d85b1b195c9e50dc99585d195960921b959361220e612246946122006101a0986121f27f311389286b5f8f21adfde26d1580d042fb1ba8e326f6344ac1b3261483f0b9bf9c60018060a01b03603654169a6040519d8e9d8e600e610180808352820152015260018060a01b031660208d015260243560408d01523360608d015260808c6101c091829101528c019061335d565b908a820360a08c015261335d565b9088820360c08a015261335d565b60a435151560e0880152426001600160401b031661010088015286810361012088015290614d4c565b90848203610140860152614d89565b906101608301520390a26001805580f35b61226690969496959295612f78565b61075b57928789959395612157565b90508401518b6120c0565b9150600683018b5260208b208b925b601f19831684106122d2576001935082601f198116106122b9575b5050811b0160068201556120d7565b86015160001960f88460031b161c191690558b806122aa565b8681015182556020938401936001909201910161228f565b634e487b7160e01b8a52604160045260248afd5b90508301518b612056565b9150600583018b5260208b208b925b601f198316841061235b576001935082601f19811610612342575b5050811b01600582015561206d565b85015160001960f88460031b161c191690558b80612333565b85810151825560209384019360019092019101612318565b90508801518b611fdb565b9150600483018b5260208b208b925b8a601f19841685106123d257506001935082601f198116106123b9575b5050811b016004820155611ff2565b8a015160001960f88460031b161c191690558b806123aa565b81015182556020938401936001909201910161238d565b60405162461bcd60e51b815260206004820152602360248201527f4578636565646564204d41585f544f54414c5f434f4d4d495353494f4e5f524160448201526254455360e81b6064820152608490fd5b60405162461bcd60e51b8152602060048201526019602482015278115e18d9595919590813505617d41056515154d7d0d3d55395603a1b6044820152606490fd5b60405162461bcd60e51b81526020600482015260176024820152764c61636b206f6620636f6d6d697373696f6e207261746560481b6044820152606490fd5b60405162461bcd60e51b815260206004820152601b60248201527a4e6f7420616c6c6f7720746f206372656174652067616c6c65727960281b6044820152606490fd5b50338452604060205260ff604085205416611f2a565b60405162461bcd60e51b8152602060048201526011602482015270139bdd0819d85b1b195c9e481bdddb9959607a1b6044820152606490fd5b50604051627eeac760e11b815233600482015260248035908201526020816044816001600160a01b0386165afa9081156125ca578591612599575b5015158015611f17575060a435611f17565b90506020813d82116125c2575b816125b360209383612fc2565b81010312610af5575138612587565b3d91506125a6565b6040513d87823e3d90fd5b503461017b57611d3b6125e736612f30565b90614822565b503461017b57606036600319011261017b576044356001600160401b0381116112ba57612621610b7c913690600401612fe5565b61262961339d565b6024356004356142f8565b503461017b57610b7c61264636612f30565b9061264f61339d565b614aa0565b503461017b57604036600319011261017b576001600160401b03906004358281116112ba57612687903690600401613052565b916024359081116112ba576126a0903690600401613052565b90805b83518110156126ed576126e26126b982866134df565b516126c483866134df565b51604051916126d283612fa7565b8583526126dd61339d565b6142f8565b6001808055016126a3565b5080f35b503461017b5760a036600319011261017b576024356001600160a01b03811681036112ba576084356001600160401b03811161099657612735903690600401612fe5565b9061273e61339d565b61274c6101a7600435614f4a565b6004358352603e60205261277060018060a01b03600360408620015416331461417d565b6040516331a9108f60e11b815260443560048201526020816024816001600160a01b0386165afa908115612d21578491612d67575b506001600160a01b03163303612d2c576001600160a01b0381163b15610996576040516323b872dd60e01b81528381806127e6604435303360048501614117565b0381836001600160a01b0387165af18015612d2157612d0e575b5060016035540190816035556040519061281982612f5c565b828252600435602083015260018060a01b0316604082015260443560608201523360808201528360a082015260643560c08201528260e082015260405161285f81612fa7565b84815261010082015260405161287481612fa7565b84815261012082015260016101408201819052828552603d60209081526040808720845181559184015192820192909255908201516002820180546001600160a01b0319166001600160a01b0392831617905560608301516003830155608083015160048301805460a0808701516001600160e01b031990921693909416929092179190921b600160a01b600160e01b031617905560c0820151600582015560e08201518051919291906001600160401b038211612c065781906129488261293f600688015461329d565b60068801613318565b602090601f8311600114612c9f578892612c94575b50508160011b916000199060031b1c19161760068301555b6101008101518051906001600160401b038211612c065781906129a88261299f600788015461329d565b60078801613318565b602090601f8311600114612c25578892612c1a575b50508160011b916000199060031b1c19161760078301555b6101208101518051906001600160401b038211612c06576129fd82610eff600887015461329d565b602090601f8311600114612b9557610140939291889183612b8a575b50508160011b916000199060031b1c19161760088401555b0151906006821015612b7657906009612a4a9201614145565b8252603d602052600080516020615af68339815191526040832060405192612a7184612f5c565b815484526001820154602085015260028201546001600160a01b039081166040860190815260038401546060870190815260048501549283166080880190815260a093841c6001600160401b0316938801938452600586015460c0890190815290959194612b6c94928992612ae8600683016133f3565b60e0850152612b2a60ff6009612b00600786016133f3565b946101008801958652610120612b18600883016133f3565b98019788520154166101408d01614139565b8a516020909b01519551975198519451905191519351604051998a996001600160401b034281169993989416936001600160a01b03908116939116908b6141db565b0390a26001805580f35b634e487b7160e01b85526021600452602485fd5b015190503880612a19565b906008850188526020882091885b601f1985168110612bee57509183916001936101409695601f19811610612bd5575b505050811b016008840155612a31565b015160001960f88460031b161c19169055388080612bc5565b91926020600181928685015181550194019201612ba3565b634e487b7160e01b87526041600452602487fd5b0151905038806129bd565b9250600785018852602088209088935b601f1984168510612c79576001945083601f19811610612c60575b505050811b0160078301556129d5565b015160001960f88460031b161c19169055388080612c50565b81810151835560209485019460019093019290910190612c35565b01519050388061295d565b9250600685018852602088209088935b601f1984168510612cf3576001945083601f19811610612cda575b505050811b016006830155612975565b015160001960f88460031b161c19169055388080612cca565b81810151835560209485019460019093019290910190612caf565b612d1a90939193612f78565b9138612800565b6040513d86823e3d90fd5b60405162461bcd60e51b81526020600482015260136024820152721bdb9b1e481bdddb995c8818d85b881b1a5cdd606a1b6044820152606490fd5b90506020813d602011612d99575b81612d8260209383612fc2565b81010312610b1457612d9390613267565b386127a5565b3d9150612d75565b503461017b57602036600319011261017b57612dbb61316f565b60043560395580f35b503461017b5761057b612e23612dd936612f30565b809391612de461339d565b612df06101a782614f4a565b808652603e602052612e1260018060a01b03600360408920015416331461417d565b612e1e61056983614f24565b614ed3565b808252603d6020526009604083200160ff198154169055600060066040842001612e50610887825461329d565b558152603d60205260408120612e7060ff6009604051936105a085612f5c565b600080516020615af68339815191526e115e1a1a589a5d10d85b98d95b1959608a1b61018061096884519461095960208201519161094a60018060a01b03604083015116606083015160018060a01b0360808501511660018060401b0360a0860151169060c08601519260e087015194610120610100890151980151996040519d8e9d8e600f610160808352820152015260208d015260408c015260608b015260808a015260a089015260c08801526101a08060e089015287019061335d565b6040906003190112611a49576004359060243590565b600435906001600160a01b0382168203611a4957565b61016081019081106001600160401b038211176117e757604052565b6001600160401b0381116117e757604052565b6101a081019081106001600160401b038211176117e757604052565b602081019081106001600160401b038211176117e757604052565b601f909101601f19168101906001600160401b038211908210176117e757604052565b81601f82011215611a49578035906001600160401b0382116117e75760405192613019601f8401601f191660200185612fc2565b82845260208383010111611a4957816000926020809301838601378301015290565b6001600160401b0381116117e75760051b60200190565b81601f82011215611a49578035916130698361303b565b926130776040519485612fc2565b808452602092838086019260051b820101928311611a49578301905b8282106130a1575050505090565b81358152908301908301613093565b602435908115158203611a4957565b81601f82011215611a49578035916130d68361303b565b926130e46040519485612fc2565b808452602092838086019260051b820101928311611a49578301905b82821061310e575050505090565b81356001600160a01b0381168103611a49578152908301908301613100565b60a680546001600160a01b0319908116909155607480549182166001600160a01b039384169081179091559116600080516020615ad6833981519152600080a3565b6074546001600160a01b0316330361318357565b606460405162461bcd60e51b815260206004820152602060248201527f4f776e61626c653a2063616c6c6572206973206e6f7420746865206f776e65726044820152fd5b156131ce57565b60405162461bcd60e51b815260206004820152602b60248201527f496e697469616c697a61626c653a20636f6e7472616374206973206e6f74206960448201526a6e697469616c697a696e6760a81b6064820152608490fd5b1561322e57565b60405162461bcd60e51b815260206004820152601160248201527011d85b1b195c9e481b9bdd08199bdd5b99607a1b6044820152606490fd5b51906001600160a01b0382168203611a4957565b60048210156132875752565b634e487b7160e01b600052602160045260246000fd5b90600182811c921680156132cd575b60208310146132b757565b634e487b7160e01b600052602260045260246000fd5b91607f16916132ac565b8181106132e2575050565b600081556001016132d7565b90601f81116132fb575050565b61331691600052601f6020600020910160051c8101906132d7565b565b9190601f811161332757505050565b613316926000526020600020906020601f840160051c83019310613353575b601f0160051c01906132d7565b9091508190613346565b919082519283825260005b848110613389575050826000602080949584010152601f8019910116010190565b602081830181015184830182015201613368565b6002600154146133ae576002600155565b60405162461bcd60e51b815260206004820152601f60248201527f5265656e7472616e637947756172643a207265656e7472616e742063616c6c006044820152606490fd5b90604051918260008254926134078461329d565b9081845260019485811690816000146134745750600114613431575b505061331692500383612fc2565b9093915060005260209081600020936000915b81831061345c57505061331693508201013880613423565b85548884018501529485019487945091830191613444565b91505061331694506020925060ff191682840152151560051b8201013880613423565b1561349e57565b60405162461bcd60e51b815260206004820152601960248201527824ba103bb0b9b713ba1030903832b73234b7339037b33332b960391b6044820152606490fd5b80518210156134f35760209160051b010190565b634e487b7160e01b600052603260045260246000fd5b91909161351581614f37565b15613fa657600092818452603c60205260408420906135f160ff600a6040519461353e86612f8b565b8054865260018101546001600160a01b03908116602088015260028201546040808901919091526003830154821660608901526004830154909116608080890191909152600583015460a0890152600683015460c089015260078301546001600160401b0380821660e08b01529281901c83166101008a0152901c166101208701526135cc600882016133f3565b6101408701526135de600982016133f3565b610160870152015416610180840161327b565b6136016101a760c0840151614f4a565b60808201516001600160a01b03163303613f535760018060a01b03602083015116602060408401516024604051809481936331a9108f60e11b835260048301525afa908115613e72578691613f19575b506001600160a01b03163303613eda576101808201516004811015613ec65761367a9015613497565b6101008201516001600160401b0316421015613e895715613e7d57818452603c602052600a6040852001600160ff19825416179055604084206136c760ff600a604051936102f485612f8b565b6020810151604082015186916001600160a01b031690813b15610996578291613708916040519485809481936323b872dd60e01b8352303360048501614117565b03925af18015613e7257613e5f575b50600080516020615ab6833981519152815191602061380960018060a01b0382840151169261048660408201519160018060a01b0360608201511660018060a01b0360808301511660a083015160c084015160018060401b0360e0860151169160018060401b03610100870151169360018060401b036101208801511695610160610140890151980151996040519d8e9d8e600d6101a08083528201526c13d999995c9058d8d95c1d1959609a1b6101c0820152015260408d015260608c015260808b015260a08a015260c089015260e08801526101008701526101208601526101e08061014087015285019061335d565b426001600160401b03166101808301520390a260016035540180603555828552603c602052604085209061384760ff600a6040519461353e86612f8b565b60c08201519160018060a01b0360208201511690604081015160018060a01b0360808301511660018060401b03610120840151169060a084015192610160610140860151950151956040519861389c8a612f5c565b888a5260208a015260408901526060880152608087015260a086015260c08501526040516138c981612fa7565b88815260e0850190815261010085019190915261012084019190915260016101408401819052918752603d60209081526040808920855181559185015193820193909355918301516002830180546001600160a01b0319166001600160a01b0392831617905560608401516003840155608084015160048401805460a0808801516001600160e01b031990921693909416929092179190921b600160a01b600160e01b031617905560c08301516005830155518051906001600160401b038211613d575781906139a9826139a0600687015461329d565b60068701613318565b602090601f8311600114613df0578992613de5575b50508160011b916000199060031b1c19161760068201555b6101008201518051906001600160401b038211613d57578190613a0982613a00600787015461329d565b60078701613318565b602090601f8311600114613d76578992613d6b575b50508160011b916000199060031b1c19161760078201555b6101208201518051906001600160401b038211613d57578190613a6082610eff600887015461329d565b602090601f8311600114613ce8578992613cdd575b50508160011b916000199060031b1c19161760088201555b610140820151906006821015613cc957613b8c9392916009613aaf9201614145565b600080516020615af68339815191528151916040613b5f89610959602085015194602060018060a01b038683015116968160608401519560018060a01b036080860151166001808b1b0360a08701511660c087015191610120610100890151980151998c519d8e9d8e6101608152613b2a610160820161415d565b9989820152015260608d015260808c015260a08b015260c08a0152888303908160e08b0152835201610100880152019061335d565b426001600160401b03166101408301520390a26020810151604090910151906001600160a01b0316614dbd565b91828452603b60205260408420906040518083602082955493848152019088526020882092885b818110613cb0575050613bc892500383612fc2565b845b8251811015613c7c57613bdd81846134df565b518481141580613c6d575b80613c36575b600192919080613c14575b613c05575b5001613bca565b613c0e90613fdd565b38613bfe565b50808852603c602052828060401b03600760408a20015460401c164210613bf9565b50808752603c60205260ff600a604089200154166004811015613c595715613bee565b634e487b7160e01b88526021600452602488fd5b50613c7781614f37565b613be8565b50939150506040918152603b6020522080546000825580613c9b575050565b613316916000526020600020908101906132d7565b8454835260019485019487945060209093019201613bb3565b634e487b7160e01b87526021600452602487fd5b015190503880613a75565b9250600884018952602089209089935b601f1984168510613d3c576001945083601f19811610613d23575b505050811b016008820155613a8d565b015160001960f88460031b161c19169055388080613d13565b81810151835560209485019460019093019290910190613cf8565b634e487b7160e01b88526041600452602488fd5b015190503880613a1e565b9250600784018952602089209089935b601f1984168510613dca576001945083601f19811610613db1575b505050811b016007820155613a36565b015160001960f88460031b161c19169055388080613da1565b81810151835560209485019460019093019290910190613d86565b0151905038806139be565b9250600684018952602089209089935b601f1984168510613e44576001945083601f19811610613e2b575b505050811b0160068201556139d6565b015160001960f88460031b161c19169055388080613e1b565b81810151835560209485019460019093019290910190613e00565b613e6b90959195612f78565b9338613717565b6040513d88823e3d90fd5b50613316919250613fdd565b60405162461bcd60e51b8152602060048201526015602482015274151a19481bd999995c881dd85cc8195e1c1a5c9959605a1b6044820152606490fd5b634e487b7160e01b86526021600452602486fd5b60405162461bcd60e51b8152602060048201526017602482015276151bdad95b881bdddb995c881dd85cc818da185b99d959604a1b6044820152606490fd5b90506020813d602011613f4b575b81613f3460209383612fc2565b8101031261074c57613f4590613267565b38613651565b3d9150613f27565b60405162461bcd60e51b815260206004820152602560248201527f4f6e6c7920746f6b656e206f776e65722063616e20616363657074207468652060448201526437b33332b960d91b6064820152608490fd5b60405162461bcd60e51b815260206004820152600f60248201526e13d999995c881b9bdd08199bdd5b99608a1b6044820152606490fd5b600052603c602052600a604060002001600260ff19825416179055604060002061401160ff600a604051936102f485612f8b565b600080516020615ab6833981519152815191602061410260018060a01b0382840151169261048660408201519160018060a01b0360608201511660018060a01b0360808301511660a083015160c084015160018060401b0360e0860151169160018060401b03610100870151169360018060401b036101208801511695610160610140890151980151996040519d8e9d8e600d6101a08083528201526c13d999995c94995a9958dd1959609a1b6101c0820152015260408d015260608c015260808b015260a08a015260c089015260e08801526101008701526101208601526101e08061014087015285019061335d565b426001600160401b03166101808301520390a2565b6001600160a01b03918216815291166020820152604081019190915260600190565b60068210156132875752565b9060068110156132875760ff80198354169116179055565b600d81526c115e1a1a589a5d131a5cdd1959609a1b602082015260400190565b1561418457565b60405162461bcd60e51b815260206004820152602960248201527f4f6e6c792067616c6c657279206f776e65722063616e206d616e6167652074686044820152681948195e1a1a589a5d60ba1b6064820152608490fd5b9894966142659661424793614256966101409b969d9e9d60608e614205610160808352820161415d565b60208201989098526001600160a01b03948516604082015201521660808c01526001600160401b0398891660a08c015260c08b015289820360e08b015261335d565b9087820361010089015261335d565b9085820361012087015261335d565b9416910152565b1561427357565b60405162461bcd60e51b8152602060048201526011602482015270115e1a1a589a5d081b9bdd08199bdd5b99607a1b6044820152606490fd5b6142b6815461329d565b90816142c0575050565b81601f600093116001146142d2575055565b818352602083206142ee91601f0160051c8101906001016132d7565b8160208120915555565b909291926143086101a783614f4a565b6000938285526020603e815261432e60018060a01b03600360408920015416331461417d565b61433a61056984614f24565b828652603d938482526040872054151590816146f5575b50806146da575b156146875782865283815260408620936040519361437585612f5c565b85548552600186015483860190815260028701546001600160a01b039081166040880152600388015460608801526004880154908116608088015260a090811c6001600160401b031690870152600587015460c0870152956144199060ff906009906143e3600682016133f3565b60e08a01526143f4600782016133f3565b6101008a0152614406600882016133f3565b6101208a01520154166101408701614139565b60a08501516001600160401b03164211614597578088528183526040808920600901805460ff1916600117905590885290825286208251600691909101916001600160401b038211613d575761447982614473855461329d565b85613318565b80601f831160011461452157508190600080516020615af683398151915296979891614516575b508160011b916000199060031b1c19161790555b815193516040808401516060850151608086015160a087015160c0880151610100890151610120909901519551988998614511986001600160401b03428116999893979296949516936001600160a01b039081169316908b6141db565b0390a2565b9050830151386144a0565b8389528089209298905b601f198a16821061457f57505096600191600080516020615af683398151915296979882601f19811610614566575b5050811b0190556144b4565b85015160001960f88460031b161c19169055388061455a565b8060018495829495890151815501940192019061452b565b919250929350808695965282825260096040862001600260ff198254161790556000600660408720016145cd610887825461329d565b5584525281600960408220828155826001820155826002820155826003820155826004820155826005820155614605600682016142ac565b614611600782016142ac565b61461d600882016142ac565b015560408101516080820151606090920151916001600160a01b039182169116813b15610b145791839161466993836040518096819582946323b872dd60e01b84523060048501614117565b03925af1801561099a5761467b575050565b61468490612f78565b50565b6084906040519062461bcd60e51b82526004820152602660248201527f45786869626974207761736e277420726573657276656420696e207468652067604482015265616c6c65727960d01b6064820152fd5b5060ff6009604088200154166006811015613cc95715614358565b905060016040882001541438614351565b1561470d57565b60405162461bcd60e51b8152602060048201526024808201527f45786869626974207761736e2774206c697374656420696e207468652067616c6044820152636c65727960e01b6064820152608490fd5b9190820180921161199d57565b9190820391821161199d57565b1561477f57565b606460405162461bcd60e51b815260206004820152602060248201527f45786869626974206e6f7420666f756e6420696e207468652067616c6c6572796044820152fd5b156147ca57565b60405162461bcd60e51b815260206004820152602a60248201527f43616c6c65722069736e2774206f726967696e616c206f776e6572206f6620746044820152691a1948195e1a1a589a5d60b21b6064820152608490fd5b9061482f6101a783614f4a565b61483b61056982614f24565b61484d6148488284614e00565b614778565b80600052603d60205260406000209161490860ff60096040519561487087612f5c565b805487526001810154602088015260028101546001600160a01b039081166040890152600382015460608901526004820154908116608089015260a090811c6001600160401b031690880152600581015460c08801526148d2600682016133f3565b60e08801526148e3600782016133f3565b6101008801526148f5600882016133f3565b6101208801520154166101408501614139565b61491f60018060a01b0360808501511633146147c3565b6000828152603d60205260409020600901805460ff191660041790556001600160401b034281166202a300011161199d57604051916001600160401b0360808401908111908411176117e7576003916080840160405281845260208401908152604084019060018060401b0342168252606085019260018060401b036202a30060018060401b03421601168452600052603f60205260406000209451855551600185015551600284015551910155600080516020615af68339815191526c22bc3434b134ba233937bd32b760991b610180614a8b84519461095960208201519161094a60018060a01b03604083015116606083015160018060a01b0360808501511660018060401b0360a0860151169060c08601519260e087015194610120610100890151980151996040519d8e9d8e600d610160808352820152015260208d015260408c015260608b015260808a015260a089015260c08801526101a08060e089015287019061335d565b426001600160401b03166101408301520390a2565b614ab782600052603f602052604060002054151590565b15614b6457614ad382600052603f602052604060002054151590565b80614b4a575b15614b0b5781614ae891614b6e565b6000908152603f6020526003604082208281558260018201558260028201550155565b60405162461bcd60e51b815260206004820152601760248201527622bc3434b134ba1034b99039ba34b63610333937bd32b760491b6044820152606490fd5b5081600052603f6020526003604060002001544211614ad9565b9061331691614822565b61484882614b9692949394614b856101a782614f4a565b614b9161056983614f24565b614e00565b600091808352603d60205260018060a01b0360046040852001541633148015614d38575b614bc3906147c3565b808352603d60205260408320600281015460039091015484916001600160a01b031690813b15610996578291614c11916040519788809481936323b872dd60e01b8352333060048501614117565b03925af1938415614d2b5760409394614d1c575b5090808252603d602052600983832001600560ff198254161790558152603d60205220614c5c60ff6009604051936105a085612f5c565b600080516020615af68339815191526e115e1a1a589a5d14995919595b5959608a1b610180614a8b84519461095960208201519161094a60018060a01b03604083015116606083015160018060a01b0360808501511660018060401b0360a0860151169060c08601519260e087015194610120610100890151980151996040519d8e9d8e600f610160808352820152015260208d015260408c015260608b015260808a015260a089015260c08801526101a08060e089015287019061335d565b614d2590612f78565b38614c25565b50604051903d90823e3d90fd5b506074546001600160a01b03163314614bba565b90815180825260208080930193019160005b828110614d6c575050505090565b83516001600160a01b031685529381019392810192600101614d5e565b90815180825260208080930193019160005b828110614da9575050505090565b835185529381019392810192600101614d9b565b604051606091821b6001600160601b031916602082019081526034808301949094529281529081016001600160401b038111828210176117e75760405251902090565b906000818152603d602052604081205415159283614ec2575b5082614e2457505090565b90915060ff6009604083200154166006811015614eae57600114918215614e89575b8215614e5157505090565b8152603d602052604081206009015460ff1691506006821015614e75575060041490565b634e487b7160e01b81526021600452602490fd5b8092508152603d60205260ff6009604083200154166006811015614eae571591614e46565b634e487b7160e01b82526021600452602482fd5b604082206001015414925038614e19565b906000908152603d602052604081205415159182614f13575b5081614ef6575090565b604081206009015460ff1691506006821015614e75575060011490565b604082206001015414915038614eec565b600052603d602052604060002054151590565b600052603c602052604060002054151590565b600052603e60205260406000205415159056fe6080806040523461001657610b3c908161001c8239f35b600080fdfe60406080815260048036101561001457600080fd5b600091823560e01c9081631f63503a1461068d57816337bcb2eb1461055d5781635e7375481461046c5781636e553f65146103cb578163715018a61461037357816379ba5097146102eb5781638129fc1c146101a25781638da5cb5b14610179578163b961cbe114610136578163e30c39781461010d575063f2fde38b1461009b57600080fd5b3461010957602036600319011261010957356001600160a01b0381811691829003610105576100c8610969565b609780546001600160a01b03191683179055606554167f38d16b8cac22d99fc7c124b9cd0de2d3fa1faef420bfe791d8c362d765e227008380a380f35b8280fd5b5080fd5b83903461010957816003193601126101095760975490516001600160a01b039091168152602090f35b91905034610105578160031936011261010557602092829161015661090c565b9035825260ca85528282206001600160a01b039091168252845220549051908152f35b83903461010957816003193601126101095760655490516001600160a01b039091168152602090f35b91905034610105578260031936011261010557825460ff8160081c1615918280936102de575b80156102c7575b1561026d575060ff19811660011784558161025c575b5061021560ff845460081c166101fa816109c1565b610203816109c1565b60018055610210816109c1565b6109c1565b61021e33610927565b610226575080f35b60207f7f26b83ff96e1f2b6a682f133852f6798a09c465da95921460cefb38474024989161ff001984541684555160018152a180f35b61ffff1916610101178355386101e5565b608490602085519162461bcd60e51b8352820152602e60248201527f496e697469616c697a61626c653a20636f6e747261637420697320616c72656160448201526d191e481a5b9a5d1a585b1a5e995960921b6064820152fd5b50303b1580156101cf5750600160ff8316146101cf565b50600160ff8316106101c8565b905034610105578260031936011261010557609754336001600160a01b039091160361031e578261031b33610927565b80f35b906020608492519162461bcd60e51b8352820152602960248201527f4f776e61626c6532537465703a2063616c6c6572206973206e6f7420746865206044820152683732bb9037bbb732b960b91b6064820152fd5b83346103c857806003193601126103c85761038c610969565b609780546001600160a01b031990811690915560658054918216905581906001600160a01b0316600080516020610ae78339815191528280a380f35b80fd5b83915080600319360112610109578235906103e461090c565b6103ec610a70565b82845260ca60209081528285206001600160a01b038316808752915282852080543481019190821061045957600080516020610ac7833981519152959697505584865260ca60205282862090865260205261044f82862054925192839283610a55565b0390a26001805580f35b634e487b7160e01b875260118852602487fd5b919050346101055760603660031901126101055780359161048b61090c565b60443590610497610a70565b84865260ca6020528286203387526020528286205493821561052357828503948511610510575085808093819388835260ca602052868320338452602052878784205560018060a01b031682f1156105075751600080516020610ac783398151915291819061044f903383610a55565b513d84823e3d90fd5b634e487b7160e01b875260119052602486fd5b606490602085519162461bcd60e51b8352820152601460248201527343616e6e6f7420636c61696d20302076616c756560601b6044820152fd5b905082346103c857602092836003193601126101095735815260c98352818120908251610589816108a1565b8351835480825284845286842087830191855b81811061067057505050816105b29103826108d2565b8152600180930194845191828288549182815201908198865283862090865b81811061065d57505050836105e79103846108d2565b8282820152519185519580870190875283518091528260608801940190855b81811061064157505050858303868301525180835291810195925b82811061062e5785870386f35b8351875295810195928101928401610621565b82516001600160a01b0316865294840194918401918701610606565b82548452928501929188019188016105d1565b82546001600160a01b03168452928901926001928301920161059c565b919050346101055760603660031901126101055760248035926001600160401b039290919083851161089d573660238601121561089d5784810135916106d2836108f5565b956106df855197886108d2565b838752602093828589019160051b83010191368311610899578301905b82821061087a5750505060443593858511610876573660238601121561087657848301359461072a866108f5565b95610737835197886108d2565b808752838688019160051b830101913683116108725784879101915b8383106108625750505050610766610969565b805196610772886108a1565b87528387019485528235885260c984528720955191825186811161082357600160401b938482116108505785906107ae838b54818d558c610a21565b01888a52858a208a5b83811061083557505050506001809701945192835196871161082357861161081257505081906107ec85855481875586610a21565b0191855280852090855b848110610801578680f35b8351838201559281019285016107f6565b634e487b7160e01b88526041905286fd5b50634e487b7160e01b88526041905286fd5b82516001600160a01b031682820155918701916001016107b7565b634e487b7160e01b8a5260418352838afd5b8235815291810191879101610753565b8a80fd5b8780fd5b81356001600160a01b03811681036108725781529085019085016106fc565b8980fd5b8580fd5b604081019081106001600160401b038211176108bc57604052565b634e487b7160e01b600052604160045260246000fd5b601f909101601f19168101906001600160401b038211908210176108bc57604052565b6001600160401b0381116108bc5760051b60200190565b602435906001600160a01b038216820361092257565b600080fd5b609780546001600160a01b0319908116909155606580549182166001600160a01b039384169081179091559116600080516020610ae7833981519152600080a3565b6065546001600160a01b0316330361097d57565b606460405162461bcd60e51b815260206004820152602060248201527f4f776e61626c653a2063616c6c6572206973206e6f7420746865206f776e65726044820152fd5b156109c857565b60405162461bcd60e51b815260206004820152602b60248201527f496e697469616c697a61626c653a20636f6e7472616374206973206e6f74206960448201526a6e697469616c697a696e6760a81b6064820152608490fd5b9091828110610a2f57505050565b60009182526020822092830192015b828110610a4a57505050565b818155600101610a3e565b6001600160a01b039091168152602081019190915260400190565b600260015414610a81576002600155565b60405162461bcd60e51b815260206004820152601f60248201527f5265656e7472616e637947756172643a207265656e7472616e742063616c6c006044820152606490fdfeae8f8bf7a17e85228ceb45755da4f4caefd40f17bfad89e34e910a6f952c17008be0079c531659141344cd1fd0a4f28419497f9722a3daafe3b4186f6b6457e0a2646970667358221220ad1ace53266a484cd7879ad4083ae4f647e40eb005538259b313eae8954081fd64736f6c63430008110033bf076646518bfc89aa04223054c6ebb7b85b3ecce008024a5b0d21fee43f97c78be0079c531659141344cd1fd0a4f28419497f9722a3daafe3b4186f6b6457e066db01a2d81855ab9f32c6e24f5b9dd677486ecaf7f601ba22798f41231d3cb5a26469706673582212203a284775d4da023a73bb56a00554c22af63abcc095ccfa714acbe63a464dc78d64736f6c63430008110033",
  "linkReferences": {},
  "deployedLinkReferences": {}
}