{
  "_format": "hh-sol-artifact-1",
  "contractName": "SBTUpgrade",
  "sourceName": "contracts/SBT_ERC1155_Upgrade.sol",
  "abi": [
    {
      "anonymous": false,
      "inputs": [
        {
          "indexed": true,
          "internalType": "address",
          "name": "account",
          "type": "address"
        },
        {
          "indexed": true,
          "internalType": "address",
          "name": "operator",
          "type": "address"
        },
        {
          "indexed": false,
          "internalType": "bool",
          "name": "approved",
          "type": "bool"
        }
      ],
      "name": "ApprovalForAll",
      "type": "event"
    },
    {
      "anonymous": false,
      "inputs": [
        {
          "indexed": true,
          "internalType": "uint256",
          "name": "id",
          "type": "uint256"
        },
        {
          "indexed": true,
          "internalType": "address",
          "name": "to",
          "type": "address"
        },
        {
          "indexed": true,
          "internalType": "uint256",
          "name": "tokenId",
          "type": "uint256"
        }
      ],
      "name": "Burn",
      "type": "event"
    },
    {
      "anonymous": false,
      "inputs": [
        {
          "indexed": true,
          "internalType": "uint256",
          "name": "id",
          "type": "uint256"
        },
        {
          "indexed": true,
          "internalType": "address",
          "name": "to",
          "type": "address"
        },
        {
          "indexed": true,
          "internalType": "uint256",
          "name": "tokenId",
          "type": "uint256"
        }
      ],
      "name": "Claimed",
      "type": "event"
    },
    {
      "anonymous": false,
      "inputs": [
        {
          "indexed": false,
          "internalType": "uint8",
          "name": "version",
          "type": "uint8"
        }
      ],
      "name": "Initialized",
      "type": "event"
    },
    {
      "anonymous": false,
      "inputs": [
        {
          "indexed": true,
          "internalType": "address",
          "name": "previousOwner",
          "type": "address"
        },
        {
          "indexed": true,
          "internalType": "address",
          "name": "newOwner",
          "type": "address"
        }
      ],
      "name": "OwnershipTransferStarted",
      "type": "event"
    },
    {
      "anonymous": false,
      "inputs": [
        {
          "indexed": true,
          "internalType": "address",
          "name": "previousOwner",
          "type": "address"
        },
        {
          "indexed": true,
          "internalType": "address",
          "name": "newOwner",
          "type": "address"
        }
      ],
      "name": "OwnershipTransferred",
      "type": "event"
    },
    {
      "anonymous": false,
      "inputs": [
        {
          "indexed": true,
          "internalType": "bytes32",
          "name": "role",
          "type": "bytes32"
        },
        {
          "indexed": true,
          "internalType": "bytes32",
          "name": "previousAdminRole",
          "type": "bytes32"
        },
        {
          "indexed": true,
          "internalType": "bytes32",
          "name": "newAdminRole",
          "type": "bytes32"
        }
      ],
      "name": "RoleAdminChanged",
      "type": "event"
    },
    {
      "anonymous": false,
      "inputs": [
        {
          "indexed": true,
          "internalType": "bytes32",
          "name": "role",
          "type": "bytes32"
        },
        {
          "indexed": true,
          "internalType": "address",
          "name": "account",
          "type": "address"
        },
        {
          "indexed": true,
          "internalType": "address",
          "name": "sender",
          "type": "address"
        }
      ],
      "name": "RoleGranted",
      "type": "event"
    },
    {
      "anonymous": false,
      "inputs": [
        {
          "indexed": true,
          "internalType": "bytes32",
          "name": "role",
          "type": "bytes32"
        },
        {
          "indexed": true,
          "internalType": "address",
          "name": "account",
          "type": "address"
        },
        {
          "indexed": true,
          "internalType": "address",
          "name": "sender",
          "type": "address"
        }
      ],
      "name": "RoleRevoked",
      "type": "event"
    },
    {
      "anonymous": false,
      "inputs": [
        {
          "indexed": true,
          "internalType": "address",
          "name": "operator",
          "type": "address"
        },
        {
          "indexed": true,
          "internalType": "address",
          "name": "from",
          "type": "address"
        },
        {
          "indexed": true,
          "internalType": "address",
          "name": "to",
          "type": "address"
        },
        {
          "indexed": false,
          "internalType": "uint256[]",
          "name": "ids",
          "type": "uint256[]"
        },
        {
          "indexed": false,
          "internalType": "uint256[]",
          "name": "values",
          "type": "uint256[]"
        }
      ],
      "name": "TransferBatch",
      "type": "event"
    },
    {
      "anonymous": false,
      "inputs": [
        {
          "indexed": true,
          "internalType": "address",
          "name": "operator",
          "type": "address"
        },
        {
          "indexed": true,
          "internalType": "address",
          "name": "from",
          "type": "address"
        },
        {
          "indexed": true,
          "internalType": "address",
          "name": "to",
          "type": "address"
        },
        {
          "indexed": false,
          "internalType": "uint256",
          "name": "id",
          "type": "uint256"
        },
        {
          "indexed": false,
          "internalType": "uint256",
          "name": "value",
          "type": "uint256"
        }
      ],
      "name": "TransferSingle",
      "type": "event"
    },
    {
      "anonymous": false,
      "inputs": [
        {
          "indexed": false,
          "internalType": "string",
          "name": "value",
          "type": "string"
        },
        {
          "indexed": true,
          "internalType": "uint256",
          "name": "id",
          "type": "uint256"
        }
      ],
      "name": "URI",
      "type": "event"
    },
    {
      "inputs": [],
      "name": "DEFAULT_ADMIN_ROLE",
      "outputs": [
        {
          "internalType": "bytes32",
          "name": "",
          "type": "bytes32"
        }
      ],
      "stateMutability": "view",
      "type": "function"
    },
    {
      "inputs": [],
      "name": "acceptOwnership",
      "outputs": [],
      "stateMutability": "nonpayable",
      "type": "function"
    },
    {
      "inputs": [
        {
          "internalType": "address",
          "name": "account",
          "type": "address"
        },
        {
          "internalType": "uint256",
          "name": "id",
          "type": "uint256"
        }
      ],
      "name": "balanceOf",
      "outputs": [
        {
          "internalType": "uint256",
          "name": "",
          "type": "uint256"
        }
      ],
      "stateMutability": "view",
      "type": "function"
    },
    {
      "inputs": [
        {
          "internalType": "address[]",
          "name": "accounts",
          "type": "address[]"
        },
        {
          "internalType": "uint256[]",
          "name": "ids",
          "type": "uint256[]"
        }
      ],
      "name": "balanceOfBatch",
      "outputs": [
        {
          "internalType": "uint256[]",
          "name": "",
          "type": "uint256[]"
        }
      ],
      "stateMutability": "view",
      "type": "function"
    },
    {
      "inputs": [
        {
          "internalType": "uint256",
          "name": "id",
          "type": "uint256"
        }
      ],
      "name": "burn",
      "outputs": [],
      "stateMutability": "nonpayable",
      "type": "function"
    },
    {
      "inputs": [
        {
          "internalType": "uint256",
          "name": "id",
          "type": "uint256"
        },
        {
          "internalType": "address",
          "name": "user",
          "type": "address"
        }
      ],
      "name": "checkClaimed",
      "outputs": [
        {
          "internalType": "bool",
          "name": "",
          "type": "bool"
        }
      ],
      "stateMutability": "view",
      "type": "function"
    },
    {
      "inputs": [
        {
          "internalType": "uint256",
          "name": "id",
          "type": "uint256"
        }
      ],
      "name": "claim",
      "outputs": [],
      "stateMutability": "nonpayable",
      "type": "function"
    },
    {
      "inputs": [
        {
          "internalType": "address",
          "name": "user",
          "type": "address"
        }
      ],
      "name": "getClaimedTokenIdList",
      "outputs": [
        {
          "internalType": "uint256[]",
          "name": "",
          "type": "uint256[]"
        }
      ],
      "stateMutability": "view",
      "type": "function"
    },
    {
      "inputs": [
        {
          "internalType": "bytes32",
          "name": "role",
          "type": "bytes32"
        }
      ],
      "name": "getRoleAdmin",
      "outputs": [
        {
          "internalType": "bytes32",
          "name": "",
          "type": "bytes32"
        }
      ],
      "stateMutability": "view",
      "type": "function"
    },
    {
      "inputs": [
        {
          "internalType": "bytes32",
          "name": "role",
          "type": "bytes32"
        },
        {
          "internalType": "address",
          "name": "account",
          "type": "address"
        }
      ],
      "name": "grantRole",
      "outputs": [],
      "stateMutability": "nonpayable",
      "type": "function"
    },
    {
      "inputs": [
        {
          "internalType": "bytes32",
          "name": "role",
          "type": "bytes32"
        },
        {
          "internalType": "address",
          "name": "account",
          "type": "address"
        }
      ],
      "name": "hasRole",
      "outputs": [
        {
          "internalType": "bool",
          "name": "",
          "type": "bool"
        }
      ],
      "stateMutability": "view",
      "type": "function"
    },
    {
      "inputs": [
        {
          "internalType": "uint256",
          "name": "",
          "type": "uint256"
        }
      ],
      "name": "id_is_open",
      "outputs": [
        {
          "internalType": "bool",
          "name": "",
          "type": "bool"
        }
      ],
      "stateMutability": "view",
      "type": "function"
    },
    {
      "inputs": [
        {
          "internalType": "uint256",
          "name": "",
          "type": "uint256"
        },
        {
          "internalType": "uint256",
          "name": "",
          "type": "uint256"
        }
      ],
      "name": "id_white_list",
      "outputs": [
        {
          "internalType": "address",
          "name": "",
          "type": "address"
        }
      ],
      "stateMutability": "view",
      "type": "function"
    },
    {
      "inputs": [
        {
          "internalType": "string",
          "name": "baseUri",
          "type": "string"
        },
        {
          "internalType": "address[]",
          "name": "admins",
          "type": "address[]"
        },
        {
          "internalType": "string",
          "name": "_name",
          "type": "string"
        },
        {
          "internalType": "string",
          "name": "_symbol",
          "type": "string"
        }
      ],
      "name": "initialize",
      "outputs": [],
      "stateMutability": "nonpayable",
      "type": "function"
    },
    {
      "inputs": [
        {
          "internalType": "address",
          "name": "account",
          "type": "address"
        },
        {
          "internalType": "address",
          "name": "operator",
          "type": "address"
        }
      ],
      "name": "isApprovedForAll",
      "outputs": [
        {
          "internalType": "bool",
          "name": "",
          "type": "bool"
        }
      ],
      "stateMutability": "view",
      "type": "function"
    },
    {
      "inputs": [
        {
          "internalType": "address[]",
          "name": "to",
          "type": "address[]"
        },
        {
          "internalType": "uint256",
          "name": "id",
          "type": "uint256"
        }
      ],
      "name": "mint",
      "outputs": [],
      "stateMutability": "nonpayable",
      "type": "function"
    },
    {
      "inputs": [],
      "name": "name",
      "outputs": [
        {
          "internalType": "string",
          "name": "",
          "type": "string"
        }
      ],
      "stateMutability": "view",
      "type": "function"
    },
    {
      "inputs": [],
      "name": "owner",
      "outputs": [
        {
          "internalType": "address",
          "name": "",
          "type": "address"
        }
      ],
      "stateMutability": "view",
      "type": "function"
    },
    {
      "inputs": [],
      "name": "pendingOwner",
      "outputs": [
        {
          "internalType": "address",
          "name": "",
          "type": "address"
        }
      ],
      "stateMutability": "view",
      "type": "function"
    },
    {
      "inputs": [],
      "name": "renounceOwnership",
      "outputs": [],
      "stateMutability": "nonpayable",
      "type": "function"
    },
    {
      "inputs": [
        {
          "internalType": "bytes32",
          "name": "role",
          "type": "bytes32"
        },
        {
          "internalType": "address",
          "name": "account",
          "type": "address"
        }
      ],
      "name": "renounceRole",
      "outputs": [],
      "stateMutability": "nonpayable",
      "type": "function"
    },
    {
      "inputs": [
        {
          "internalType": "bytes32",
          "name": "role",
          "type": "bytes32"
        },
        {
          "internalType": "address",
          "name": "account",
          "type": "address"
        }
      ],
      "name": "revokeRole",
      "outputs": [],
      "stateMutability": "nonpayable",
      "type": "function"
    },
    {
      "inputs": [
        {
          "internalType": "address",
          "name": "from",
          "type": "address"
        },
        {
          "internalType": "address",
          "name": "to",
          "type": "address"
        },
        {
          "internalType": "uint256[]",
          "name": "ids",
          "type": "uint256[]"
        },
        {
          "internalType": "uint256[]",
          "name": "amounts",
          "type": "uint256[]"
        },
        {
          "internalType": "bytes",
          "name": "data",
          "type": "bytes"
        }
      ],
      "name": "safeBatchTransferFrom",
      "outputs": [],
      "stateMutability": "nonpayable",
      "type": "function"
    },
    {
      "inputs": [
        {
          "internalType": "address",
          "name": "from",
          "type": "address"
        },
        {
          "internalType": "address",
          "name": "to",
          "type": "address"
        },
        {
          "internalType": "uint256",
          "name": "id",
          "type": "uint256"
        },
        {
          "internalType": "uint256",
          "name": "amount",
          "type": "uint256"
        },
        {
          "internalType": "bytes",
          "name": "data",
          "type": "bytes"
        }
      ],
      "name": "safeTransferFrom",
      "outputs": [],
      "stateMutability": "nonpayable",
      "type": "function"
    },
    {
      "inputs": [
        {
          "internalType": "address",
          "name": "",
          "type": "address"
        },
        {
          "internalType": "bool",
          "name": "",
          "type": "bool"
        }
      ],
      "name": "setApprovalForAll",
      "outputs": [],
      "stateMutability": "nonpayable",
      "type": "function"
    },
    {
      "inputs": [
        {
          "internalType": "string",
          "name": "baseExtension",
          "type": "string"
        }
      ],
      "name": "setBaseExtension",
      "outputs": [],
      "stateMutability": "nonpayable",
      "type": "function"
    },
    {
      "inputs": [
        {
          "internalType": "string",
          "name": "baseUri",
          "type": "string"
        }
      ],
      "name": "setBaseUri",
      "outputs": [],
      "stateMutability": "nonpayable",
      "type": "function"
    },
    {
      "inputs": [
        {
          "internalType": "uint256",
          "name": "id",
          "type": "uint256"
        },
        {
          "internalType": "bool",
          "name": "status",
          "type": "bool"
        }
      ],
      "name": "setOpenStatus",
      "outputs": [],
      "stateMutability": "nonpayable",
      "type": "function"
    },
    {
      "inputs": [
        {
          "internalType": "uint256",
          "name": "id",
          "type": "uint256"
        },
        {
          "internalType": "address[]",
          "name": "white_list",
          "type": "address[]"
        }
      ],
      "name": "setWhiteList",
      "outputs": [],
      "stateMutability": "nonpayable",
      "type": "function"
    },
    {
      "inputs": [
        {
          "internalType": "uint256",
          "name": "id",
          "type": "uint256"
        },
        {
          "internalType": "address[]",
          "name": "white_list",
          "type": "address[]"
        }
      ],
      "name": "setWhiteListAndOpenStatus",
      "outputs": [],
      "stateMutability": "nonpayable",
      "type": "function"
    },
    {
      "inputs": [
        {
          "internalType": "bytes4",
          "name": "interfaceId",
          "type": "bytes4"
        }
      ],
      "name": "supportsInterface",
      "outputs": [
        {
          "internalType": "bool",
          "name": "",
          "type": "bool"
        }
      ],
      "stateMutability": "view",
      "type": "function"
    },
    {
      "inputs": [],
      "name": "symbol",
      "outputs": [
        {
          "internalType": "string",
          "name": "",
          "type": "string"
        }
      ],
      "stateMutability": "view",
      "type": "function"
    },
    {
      "inputs": [
        {
          "internalType": "address",
          "name": "newOwner",
          "type": "address"
        }
      ],
      "name": "transferOwnership",
      "outputs": [],
      "stateMutability": "nonpayable",
      "type": "function"
    },
    {
      "inputs": [
        {
          "internalType": "uint256",
          "name": "tokenId",
          "type": "uint256"
        }
      ],
      "name": "uri",
      "outputs": [
        {
          "internalType": "string",
          "name": "",
          "type": "string"
        }
      ],
      "stateMutability": "view",
      "type": "function"
    },
    {
      "inputs": [
        {
          "internalType": "address",
          "name": "",
          "type": "address"
        },
        {
          "internalType": "uint256",
          "name": "",
          "type": "uint256"
        }
      ],
      "name": "user_claimed_list",
      "outputs": [
        {
          "internalType": "uint256",
          "name": "",
          "type": "uint256"
        }
      ],
      "stateMutability": "view",
      "type": "function"
    },
    {
      "inputs": [
        {
          "internalType": "uint256",
          "name": "",
          "type": "uint256"
        },
        {
          "internalType": "address",
          "name": "",
          "type": "address"
        }
      ],
      "name": "whitelist_claimed_map",
      "outputs": [
        {
          "internalType": "bool",
          "name": "",
          "type": "bool"
        }
      ],
      "stateMutability": "view",
      "type": "function"
    }
  ],
  "bytecode": "0x608060405234801561001057600080fd5b50613237806100206000396000f3fe608060405234801561001057600080fd5b506004361061021b5760003560e01c806391d1485411610125578063e30c3978116100ad578063f242432a1161007c578063f242432a14610501578063f2fde38b14610514578063fd3377ac14610527578063fe728a2a1461054b578063fe813da71461055e57600080fd5b8063e30c39781461048e578063e985e9c51461049f578063ea66696c146104db578063f22e2546146104ee57600080fd5b8063a22cb465116100f4578063a22cb46514610413578063bef828aa14610426578063bff4e6ab14610455578063d547741f14610468578063da3ef23f1461047b57600080fd5b806391d14854146103dd57806395d89b41146103f0578063a0bcfc7f146103f8578063a217fddf1461040b57600080fd5b806336568abe116101a85780634e1273f4116101775780634e1273f414610375578063715018a61461039557806372008ee51461039d57806379ba5097146103b05780638da5cb5b146103b857600080fd5b806336568abe14610302578063379607f5146103155780633ea167091461032857806342966c681461036257600080fd5b8063248a9ca3116101ef578063248a9ca3146102915780632eb2c2d6146102b45780632f2ff15d146102c95780632fb7d7e1146102dc57806334113ae0146102ef57600080fd5b8062fdd58e1461022057806301ffc9a71461024657806306fdde03146102695780630e89341c1461027e575b600080fd5b61023361022e3660046124ee565b610571565b6040519081526020015b60405180910390f35b61025961025436600461252e565b61060c565b604051901515815260200161023d565b610271610667565b60405161023d919061259b565b61027161028c3660046125ae565b6106f6565b61023361029f3660046125ae565b60009081526097602052604090206001015490565b6102c76102c2366004612710565b61072f565b005b6102c76102d73660046127b9565b61077b565b6102c76102ea366004612852565b610791565b6102336102fd3660046124ee565b6107df565b6102c76103103660046127b9565b610811565b6102c76103233660046125ae565b61088b565b6102596103363660046127b9565b6000918252610134602090815260408084206001600160a01b0393909316845291905290205460ff1690565b6102c76103703660046125ae565b610b5a565b610388610383366004612898565b610cbb565b60405161023d919061292c565b6102c7610de4565b6102c76103ab36600461294f565b610df8565b6102c7610e42565b60c9546001600160a01b03165b6040516001600160a01b03909116815260200161023d565b6102596103eb3660046127b9565b610ebc565b610271610ee7565b6102c7610406366004612972565b610ef5565b610233600081565b6102c76104213660046129ae565b610f2b565b6102596104343660046127b9565b61013460209081526000928352604080842090915290825290205460ff1681565b6102c76104633660046129d8565b610f87565b6102c76104763660046127b9565b61115a565b6102c7610489366004612972565b61116c565b60fb546001600160a01b03166103c5565b6102596104ad366004612a84565b6001600160a01b03918216600090815260666020908152604080832093909416825291909152205460ff1690565b6102c76104e9366004612aae565b6111a2565b6103886104fc366004612b28565b6112e8565b6102c761050f366004612b43565b611355565b6102c7610522366004612b28565b61139a565b6102596105353660046125ae565b6101336020526000908152604090205460ff1681565b6103c5610559366004612ba7565b61140b565b6102c761056c366004612852565b611444565b60006001600160a01b0383166105e15760405162461bcd60e51b815260206004820152602a60248201527f455243313135353a2061646472657373207a65726f206973206e6f742061207660448201526930b634b21037bbb732b960b11b60648201526084015b60405180910390fd5b5060008181526065602090815260408083206001600160a01b03861684529091529020545b92915050565b60006001600160e01b03198216637965db0b60e01b148061063d57506001600160e01b03198216636cdb3d1360e11b145b8061065857506001600160e01b031982166303a24d0760e21b145b806106065750610606826114ab565b61012e805461067590612bc9565b80601f01602080910402602001604051908101604052809291908181526020018280546106a190612bc9565b80156106ee5780601f106106c3576101008083540402835291602001916106ee565b820191906000526020600020905b8154815290600101906020018083116106d157829003601f168201915b505050505081565b6060610130610704836114d0565b61013160405160200161071993929190612c76565b6040516020818303038152906040529050919050565b6001600160a01b03851633148061074b575061074b85336104ad565b6107675760405162461bcd60e51b81526004016105d890612ca9565b6107748585858585611562565b5050505050565b610783611750565b61078d82826117aa565b5050565b61079e61012d5433610ebc565b6107ba5760405162461bcd60e51b81526004016105d890612cf7565b60008281526101326020908152604090912082516107da92840190612458565b505050565b61013560205281600052604060002081815481106107fc57600080fd5b90600052602060002001600091509150505481565b6001600160a01b03811633146108815760405162461bcd60e51b815260206004820152602f60248201527f416363657373436f6e74726f6c3a2063616e206f6e6c792072656e6f756e636560448201526e103937b632b9903337b91039b2b63360891b60648201526084016105d8565b61078d82826117cf565b6000818152610133602052604090205460ff166108ea5760405162461bcd60e51b815260206004820152601d60248201527f5468697320746f6b656e4944206973206e6f74206f70656e207965742e00000060448201526064016105d8565b60008181526101346020908152604080832033845290915290205460ff16156109555760405162461bcd60e51b815260206004820152601f60248201527f596f7520616c726561647920636c61696d6564207468697320746f6b656e2e0060448201526064016105d8565b600081815261013260205260408120549003610a015760008181526101346020908152604080832033808552908352818420805460ff1916600190811790915582519384019092529282526109ad9291849190611836565b3360008181526101356020908152604080832080546001810182559084529183209091018490555183929183917f4ec90e965519d92681267467f775ada5bd214aa92c0dc93d90a5e880ce9ed0269190a450565b6000805b60008381526101326020526040902054811015610a7557600083815261013260205260409020805433919083908110610a4057610a40612d2e565b6000918252602090912001546001600160a01b031603610a635760019150610a75565b80610a6d81612d5a565b915050610a05565b5080610ac35760405162461bcd60e51b815260206004820152601e60248201527f596f7520617265206e6f7420696e20746865207768697465206c6973742e000060448201526064016105d8565b60008281526101346020908152604080832033808552908352818420805460ff191660019081179091558251938401909252928252610b059291859190611836565b3360008181526101356020908152604080832080546001810182559084529183209091018590555184929183917f4ec90e965519d92681267467f775ada5bd214aa92c0dc93d90a5e880ce9ed0269190a45050565b806000610b673383610571565b11610bb45760405162461bcd60e51b815260206004820152601960248201527f596f7520646f6e277420686176652074686520746f6b656e2e0000000000000060448201526064016105d8565b610bc03383600161195b565b33600090815261013560205260408120905b8154811015610c865783828281548110610bee57610bee612d2e565b906000526020600020015403610c745781548290610c0e90600190612d73565b81548110610c1e57610c1e612d2e565b9060005260206000200154828281548110610c3b57610c3b612d2e565b906000526020600020018190555081805480610c5957610c59612d86565b60019003818190600052602060002001600090559055610c86565b80610c7e81612d5a565b915050610bd2565b506040518390339082907fe1b6e34006e9871307436c226f232f9c5e7690c1d2c4f4adda4f607a75a9beca90600090a4505050565b60608151835114610d205760405162461bcd60e51b815260206004820152602960248201527f455243313135353a206163636f756e747320616e6420696473206c656e677468604482015268040dad2e6dac2e8c6d60bb1b60648201526084016105d8565b600083516001600160401b03811115610d3b57610d3b6125c7565b604051908082528060200260200182016040528015610d64578160200160208202803683370190505b50905060005b8451811015610ddc57610daf858281518110610d8857610d88612d2e565b6020026020010151858381518110610da257610da2612d2e565b6020026020010151610571565b828281518110610dc157610dc1612d2e565b6020908102919091010152610dd581612d5a565b9050610d6a565b509392505050565b610dec611750565b610df66000611aef565b565b610e0561012d5433610ebc565b610e215760405162461bcd60e51b81526004016105d890612cf7565b60009182526101336020526040909120805460ff1916911515919091179055565b60fb5433906001600160a01b03168114610eb05760405162461bcd60e51b815260206004820152602960248201527f4f776e61626c6532537465703a2063616c6c6572206973206e6f7420746865206044820152683732bb9037bbb732b960b91b60648201526084016105d8565b610eb981611aef565b50565b60009182526097602090815260408084206001600160a01b0393909316845291905290205460ff1690565b61012f805461067590612bc9565b610f0261012d5433610ebc565b610f1e5760405162461bcd60e51b81526004016105d890612cf7565b61013061078d8282612de2565b60405162461bcd60e51b815260206004820152602b60248201527f5468697320746f6b656e206973205342542c20736f20746869732063616e206e60448201526a37ba1030b8383937bb329760a91b60648201526084016105d8565b600054610100900460ff1615808015610fa75750600054600160ff909116105b80610fc15750303b158015610fc1575060005460ff166001145b6110245760405162461bcd60e51b815260206004820152602e60248201527f496e697469616c697a61626c653a20636f6e747261637420697320616c72656160448201526d191e481a5b9a5d1a585b1a5e995960921b60648201526084016105d8565b6000805460ff191660011790558015611047576000805461ff0019166101001790555b6420a226a4a760d91b61012d55604080518082019091526005815264173539b7b760d91b60208201526101319061107e9082612de2565b5061013061108c8682612de2565b5061012e61109a8482612de2565b5061012f6110a88382612de2565b506110b1611b08565b6110b9611b37565b6110c961012d5461012d54611b5e565b60005b845181101561110d576110fb61012d548683815181106110ee576110ee612d2e565b6020026020010151611ba9565b8061110581612d5a565b9150506110cc565b508015610774576000805461ff0019169055604051600181527f7f26b83ff96e1f2b6a682f133852f6798a09c465da95921460cefb38474024989060200160405180910390a15050505050565b611162611750565b61078d8282611bb3565b61117961012d5433610ebc565b6111955760405162461bcd60e51b81526004016105d890612cf7565b61013161078d8282612de2565b6111af61012d5433610ebc565b6111cb5760405162461bcd60e51b81526004016105d890612cf7565b60005b828110156112e2576112188484838181106111eb576111eb612d2e565b90506020020160208101906112009190612b28565b83600160405180602001604052806000815250611836565b610135600085858481811061122f5761122f612d2e565b90506020020160208101906112449190612b28565b6001600160a01b0316815260208082019290925260400160009081208054600181018255908252919020018290558184848381811061128557611285612d2e565b905060200201602081019061129a9190612b28565b6001600160a01b0316837f4ec90e965519d92681267467f775ada5bd214aa92c0dc93d90a5e880ce9ed02660405160405180910390a4806112da81612d5a565b9150506111ce565b50505050565b6001600160a01b0381166000908152610135602090815260409182902080548351818402810184019094528084526060939283018282801561134957602002820191906000526020600020905b815481526020019060010190808311611335575b50505050509050919050565b6001600160a01b038516331480611371575061137185336104ad565b61138d5760405162461bcd60e51b81526004016105d890612ca9565b6107748585858585611bd8565b6113a2611750565b60fb80546001600160a01b0383166001600160a01b031990911681179091556113d360c9546001600160a01b031690565b6001600160a01b03167f38d16b8cac22d99fc7c124b9cd0de2d3fa1faef420bfe791d8c362d765e2270060405160405180910390a350565b610132602052816000526040600020818154811061142857600080fd5b6000918252602090912001546001600160a01b03169150829050565b61145161012d5433610ebc565b61146d5760405162461bcd60e51b81526004016105d890612cf7565b600082815261013260209081526040909120825161148d92840190612458565b5050600090815261013360205260409020805460ff19166001179055565b60006001600160e01b03198216637965db0b60e01b1480610606575061060682611d14565b606060006114dd83611d64565b60010190506000816001600160401b038111156114fc576114fc6125c7565b6040519080825280601f01601f191660200182016040528015611526576020820181803683370190505b5090508181016020015b600019016f181899199a1a9b1b9c1cb0b131b232b360811b600a86061a8153600a850494508461153057509392505050565b81518351146115c45760405162461bcd60e51b815260206004820152602860248201527f455243313135353a2069647320616e6420616d6f756e7473206c656e677468206044820152670dad2e6dac2e8c6d60c31b60648201526084016105d8565b6001600160a01b0384166115ea5760405162461bcd60e51b81526004016105d890612ea1565b336115f9818787878787611e3c565b60005b84518110156116e257600085828151811061161957611619612d2e565b60200260200101519050600085838151811061163757611637612d2e565b60209081029190910181015160008481526065835260408082206001600160a01b038e1683529093529190912054909150818110156116885760405162461bcd60e51b81526004016105d890612ee6565b60008381526065602090815260408083206001600160a01b038e8116855292528083208585039055908b168252812080548492906116c7908490612f30565b92505081905550505050806116db90612d5a565b90506115fc565b50846001600160a01b0316866001600160a01b0316826001600160a01b03167f4a39dc06d4c0dbc64b70af90fd698a233a518aa5d07e595d983b8c0526c8f7fb8787604051611732929190612f43565b60405180910390a4611748818787878787611ed8565b505050505050565b60c9546001600160a01b03163314610df65760405162461bcd60e51b815260206004820181905260248201527f4f776e61626c653a2063616c6c6572206973206e6f7420746865206f776e657260448201526064016105d8565b6000828152609760205260409020600101546117c581612033565b6107da838361203d565b6117d98282610ebc565b1561078d5760008281526097602090815260408083206001600160a01b0385168085529252808320805460ff1916905551339285917ff6391f5c32d9c69d2a47ea670b442974b53935d1edc7fd64eb21e047a839171b9190a45050565b6001600160a01b0384166118965760405162461bcd60e51b815260206004820152602160248201527f455243313135353a206d696e7420746f20746865207a65726f206164647265736044820152607360f81b60648201526084016105d8565b3360006118a2856120c3565b905060006118af856120c3565b90506118c083600089858589611e3c565b60008681526065602090815260408083206001600160a01b038b168452909152812080548792906118f2908490612f30565b909155505060408051878152602081018790526001600160a01b03808a1692600092918716917fc3d58168c5ae7397731d063d5bbf3d657854427343f4c083240f7aacaa2d0f62910160405180910390a46119528360008989898961210e565b50505050505050565b6001600160a01b0383166119bd5760405162461bcd60e51b815260206004820152602360248201527f455243313135353a206275726e2066726f6d20746865207a65726f206164647260448201526265737360e81b60648201526084016105d8565b3360006119c9846120c3565b905060006119d6846120c3565b90506119f683876000858560405180602001604052806000815250611e3c565b60008581526065602090815260408083206001600160a01b038a16845290915290205484811015611a755760405162461bcd60e51b8152602060048201526024808201527f455243313135353a206275726e20616d6f756e7420657863656564732062616c604482015263616e636560e01b60648201526084016105d8565b60008681526065602090815260408083206001600160a01b038b81168086529184528285208a8703905582518b81529384018a90529092908816917fc3d58168c5ae7397731d063d5bbf3d657854427343f4c083240f7aacaa2d0f62910160405180910390a4604080516020810190915260009052611952565b60fb80546001600160a01b0319169055610eb9816121c9565b600054610100900460ff16611b2f5760405162461bcd60e51b81526004016105d890612f71565b610df661221b565b600054610100900460ff16610df65760405162461bcd60e51b81526004016105d890612f71565b600082815260976020526040808220600101805490849055905190918391839186917fbd79b86ffe0ab8e8776151514217cd7cacd52c909f66475c3af44e129f0b00ff9190a4505050565b61078d828261203d565b600082815260976020526040902060010154611bce81612033565b6107da83836117cf565b6001600160a01b038416611bfe5760405162461bcd60e51b81526004016105d890612ea1565b336000611c0a856120c3565b90506000611c17856120c3565b9050611c27838989858589611e3c565b60008681526065602090815260408083206001600160a01b038c16845290915290205485811015611c6a5760405162461bcd60e51b81526004016105d890612ee6565b60008781526065602090815260408083206001600160a01b038d8116855292528083208985039055908a16825281208054889290611ca9908490612f30565b909155505060408051888152602081018890526001600160a01b03808b16928c821692918816917fc3d58168c5ae7397731d063d5bbf3d657854427343f4c083240f7aacaa2d0f62910160405180910390a4611d09848a8a8a8a8a61210e565b505050505050505050565b60006001600160e01b03198216636cdb3d1360e11b1480611d4557506001600160e01b031982166303a24d0760e21b145b8061060657506301ffc9a760e01b6001600160e01b0319831614610606565b60008072184f03e93ff9f4daa797ed6e38ed64bf6a1f0160401b8310611da35772184f03e93ff9f4daa797ed6e38ed64bf6a1f0160401b830492506040015b6d04ee2d6d415b85acef81000000008310611dcf576d04ee2d6d415b85acef8100000000830492506020015b662386f26fc100008310611ded57662386f26fc10000830492506010015b6305f5e1008310611e05576305f5e100830492506008015b6127108310611e1957612710830492506004015b60648310611e2b576064830492506002015b600a83106106065760010192915050565b60005b8351811015611952576001600160a01b0386161580611e6557506001600160a01b038516155b611ec65760405162461bcd60e51b815260206004820152602c60248201527f5468697320746f6b656e206973205342542c20736f20746869732063616e206e60448201526b37ba103a3930b739b332b91760a11b60648201526084016105d8565b80611ed081612d5a565b915050611e3f565b6001600160a01b0384163b156117485760405163bc197c8160e01b81526001600160a01b0385169063bc197c8190611f1c9089908990889088908890600401612fbc565b6020604051808303816000875af1925050508015611f57575060408051601f3d908101601f19168201909252611f549181019061301a565b60015b61200357611f63613037565b806308c379a003611f9c5750611f77613053565b80611f825750611f9e565b8060405162461bcd60e51b81526004016105d8919061259b565b505b60405162461bcd60e51b815260206004820152603460248201527f455243313135353a207472616e7366657220746f206e6f6e2d455243313135356044820152732932b1b2b4bb32b91034b6b83632b6b2b73a32b960611b60648201526084016105d8565b6001600160e01b0319811663bc197c8160e01b146119525760405162461bcd60e51b81526004016105d8906130dc565b610eb9813361224b565b6120478282610ebc565b61078d5760008281526097602090815260408083206001600160a01b03851684529091529020805460ff1916600117905561207f3390565b6001600160a01b0316816001600160a01b0316837f2f8788117e7eff1d82e926ec794901d17c78024a50270940304540a733656f0d60405160405180910390a45050565b604080516001808252818301909252606091600091906020808301908036833701905050905082816000815181106120fd576120fd612d2e565b602090810291909101015292915050565b6001600160a01b0384163b156117485760405163f23a6e6160e01b81526001600160a01b0385169063f23a6e61906121529089908990889088908890600401613124565b6020604051808303816000875af192505050801561218d575060408051601f3d908101601f1916820190925261218a9181019061301a565b60015b61219957611f63613037565b6001600160e01b0319811663f23a6e6160e01b146119525760405162461bcd60e51b81526004016105d8906130dc565b60c980546001600160a01b038381166001600160a01b0319831681179093556040519116919082907f8be0079c531659141344cd1fd0a4f28419497f9722a3daafe3b4186f6b6457e090600090a35050565b600054610100900460ff166122425760405162461bcd60e51b81526004016105d890612f71565b610df633611aef565b6122558282610ebc565b61078d57612262816122a4565b61226d8360206122b6565b60405160200161227e92919061315e565b60408051601f198184030181529082905262461bcd60e51b82526105d89160040161259b565b60606106066001600160a01b03831660145b606060006122c58360026131d3565b6122d0906002612f30565b6001600160401b038111156122e7576122e76125c7565b6040519080825280601f01601f191660200182016040528015612311576020820181803683370190505b509050600360fc1b8160008151811061232c5761232c612d2e565b60200101906001600160f81b031916908160001a905350600f60fb1b8160018151811061235b5761235b612d2e565b60200101906001600160f81b031916908160001a905350600061237f8460026131d3565b61238a906001612f30565b90505b6001811115612402576f181899199a1a9b1b9c1cb0b131b232b360811b85600f16601081106123be576123be612d2e565b1a60f81b8282815181106123d4576123d4612d2e565b60200101906001600160f81b031916908160001a90535060049490941c936123fb816131ea565b905061238d565b5083156124515760405162461bcd60e51b815260206004820181905260248201527f537472696e67733a20686578206c656e67746820696e73756666696369656e7460448201526064016105d8565b9392505050565b8280548282559060005260206000209081019282156124ad579160200282015b828111156124ad57825182546001600160a01b0319166001600160a01b03909116178255602090920191600190910190612478565b506124b99291506124bd565b5090565b5b808211156124b957600081556001016124be565b80356001600160a01b03811681146124e957600080fd5b919050565b6000806040838503121561250157600080fd5b61250a836124d2565b946020939093013593505050565b6001600160e01b031981168114610eb957600080fd5b60006020828403121561254057600080fd5b813561245181612518565b60005b8381101561256657818101518382015260200161254e565b50506000910152565b6000815180845261258781602086016020860161254b565b601f01601f19169290920160200192915050565b602081526000612451602083018461256f565b6000602082840312156125c057600080fd5b5035919050565b634e487b7160e01b600052604160045260246000fd5b601f8201601f191681016001600160401b0381118282101715612602576126026125c7565b6040525050565b60006001600160401b03821115612622576126226125c7565b5060051b60200190565b600082601f83011261263d57600080fd5b8135602061264a82612609565b60405161265782826125dd565b83815260059390931b850182019282810191508684111561267757600080fd5b8286015b84811015612692578035835291830191830161267b565b509695505050505050565b600082601f8301126126ae57600080fd5b81356001600160401b038111156126c7576126c76125c7565b6040516126de601f8301601f1916602001826125dd565b8181528460208386010111156126f357600080fd5b816020850160208301376000918101602001919091529392505050565b600080600080600060a0868803121561272857600080fd5b612731866124d2565b945061273f602087016124d2565b935060408601356001600160401b038082111561275b57600080fd5b61276789838a0161262c565b9450606088013591508082111561277d57600080fd5b61278989838a0161262c565b9350608088013591508082111561279f57600080fd5b506127ac8882890161269d565b9150509295509295909350565b600080604083850312156127cc57600080fd5b823591506127dc602084016124d2565b90509250929050565b600082601f8301126127f657600080fd5b8135602061280382612609565b60405161281082826125dd565b83815260059390931b850182019282810191508684111561283057600080fd5b8286015b8481101561269257612845816124d2565b8352918301918301612834565b6000806040838503121561286557600080fd5b8235915060208301356001600160401b0381111561288257600080fd5b61288e858286016127e5565b9150509250929050565b600080604083850312156128ab57600080fd5b82356001600160401b03808211156128c257600080fd5b6128ce868387016127e5565b935060208501359150808211156128e457600080fd5b5061288e8582860161262c565b600081518084526020808501945080840160005b8381101561292157815187529582019590820190600101612905565b509495945050505050565b60208152600061245160208301846128f1565b803580151581146124e957600080fd5b6000806040838503121561296257600080fd5b823591506127dc6020840161293f565b60006020828403121561298457600080fd5b81356001600160401b0381111561299a57600080fd5b6129a68482850161269d565b949350505050565b600080604083850312156129c157600080fd5b6129ca836124d2565b91506127dc6020840161293f565b600080600080608085870312156129ee57600080fd5b84356001600160401b0380821115612a0557600080fd5b612a118883890161269d565b95506020870135915080821115612a2757600080fd5b612a33888389016127e5565b94506040870135915080821115612a4957600080fd5b612a558883890161269d565b93506060870135915080821115612a6b57600080fd5b50612a788782880161269d565b91505092959194509250565b60008060408385031215612a9757600080fd5b612aa0836124d2565b91506127dc602084016124d2565b600080600060408486031215612ac357600080fd5b83356001600160401b0380821115612ada57600080fd5b818601915086601f830112612aee57600080fd5b813581811115612afd57600080fd5b8760208260051b8501011115612b1257600080fd5b6020928301989097509590910135949350505050565b600060208284031215612b3a57600080fd5b612451826124d2565b600080600080600060a08688031215612b5b57600080fd5b612b64866124d2565b9450612b72602087016124d2565b9350604086013592506060860135915060808601356001600160401b03811115612b9b57600080fd5b6127ac8882890161269d565b60008060408385031215612bba57600080fd5b50508035926020909101359150565b600181811c90821680612bdd57607f821691505b602082108103612bfd57634e487b7160e01b600052602260045260246000fd5b50919050565b60008154612c1081612bc9565b60018281168015612c285760018114612c3d57612c6c565b60ff1984168752821515830287019450612c6c565b8560005260208060002060005b85811015612c635781548a820152908401908201612c4a565b50505082870194505b5050505092915050565b6000612c828286612c03565b8451612c9281836020890161254b565b612c9e81830186612c03565b979650505050505050565b6020808252602e908201527f455243313135353a2063616c6c6572206973206e6f7420746f6b656e206f776e60408201526d195c881bdc88185c1c1c9bdd995960921b606082015260800190565b60208082526017908201527f596f7520617265206e6f7420617574686f72697a65642e000000000000000000604082015260600190565b634e487b7160e01b600052603260045260246000fd5b634e487b7160e01b600052601160045260246000fd5b600060018201612d6c57612d6c612d44565b5060010190565b8181038181111561060657610606612d44565b634e487b7160e01b600052603160045260246000fd5b601f8211156107da57600081815260208120601f850160051c81016020861015612dc35750805b601f850160051c820191505b8181101561174857828155600101612dcf565b81516001600160401b03811115612dfb57612dfb6125c7565b612e0f81612e098454612bc9565b84612d9c565b602080601f831160018114612e445760008415612e2c5750858301515b600019600386901b1c1916600185901b178555611748565b600085815260208120601f198616915b82811015612e7357888601518255948401946001909101908401612e54565b5085821015612e915787850151600019600388901b60f8161c191681555b5050505050600190811b01905550565b60208082526025908201527f455243313135353a207472616e7366657220746f20746865207a65726f206164604082015264647265737360d81b606082015260800190565b6020808252602a908201527f455243313135353a20696e73756666696369656e742062616c616e636520666f60408201526939103a3930b739b332b960b11b606082015260800190565b8082018082111561060657610606612d44565b604081526000612f5660408301856128f1565b8281036020840152612f6881856128f1565b95945050505050565b6020808252602b908201527f496e697469616c697a61626c653a20636f6e7472616374206973206e6f74206960408201526a6e697469616c697a696e6760a81b606082015260800190565b6001600160a01b0386811682528516602082015260a060408201819052600090612fe8908301866128f1565b8281036060840152612ffa81866128f1565b9050828103608084015261300e818561256f565b98975050505050505050565b60006020828403121561302c57600080fd5b815161245181612518565b600060033d11156130505760046000803e5060005160e01c5b90565b600060443d10156130615790565b6040516003193d81016004833e81513d6001600160401b03816024840111818411171561309057505050505090565b82850191508151818111156130a85750505050505090565b843d87010160208285010111156130c25750505050505090565b6130d1602082860101876125dd565b509095945050505050565b60208082526028908201527f455243313135353a204552433131353552656365697665722072656a656374656040820152676420746f6b656e7360c01b606082015260800190565b6001600160a01b03868116825285166020820152604081018490526060810183905260a060808201819052600090612c9e9083018461256f565b7f416363657373436f6e74726f6c3a206163636f756e742000000000000000000081526000835161319681601785016020880161254b565b7001034b99036b4b9b9b4b733903937b6329607d1b60179184019182015283516131c781602884016020880161254b565b01602801949350505050565b808202811582820484141761060657610606612d44565b6000816131f9576131f9612d44565b50600019019056fea2646970667358221220b13a1889a43182d00fc161f08fe86d4e41bc54664784e45d49449c4d9744c0a764736f6c63430008120033",
  "linkReferences": {},
  "deployedLinkReferences": {}
}